{
	"contracts/mycontract.sol": {
		"startTrade": {
			"abi": [
				{
					"inputs": [],
					"stateMutability": "nonpayable",
					"type": "constructor"
				},
				{
					"inputs": [
						{
							"internalType": "uint256",
							"name": "price",
							"type": "uint256"
						},
						{
							"internalType": "string",
							"name": "location",
							"type": "string"
						},
						{
							"internalType": "string",
							"name": "prac",
							"type": "string"
						},
						{
							"internalType": "uint256",
							"name": "size",
							"type": "uint256"
						}
					],
					"name": "addProject",
					"outputs": [],
					"stateMutability": "nonpayable",
					"type": "function"
				},
				{
					"inputs": [
						{
							"internalType": "uint256",
							"name": "",
							"type": "uint256"
						}
					],
					"name": "details",
					"outputs": [
						{
							"internalType": "uint256",
							"name": "project_id",
							"type": "uint256"
						},
						{
							"internalType": "uint256",
							"name": "price",
							"type": "uint256"
						},
						{
							"internalType": "string",
							"name": "location",
							"type": "string"
						},
						{
							"internalType": "string",
							"name": "prac",
							"type": "string"
						},
						{
							"internalType": "uint256",
							"name": "size",
							"type": "uint256"
						}
					],
					"stateMutability": "view",
					"type": "function"
				},
				{
					"inputs": [],
					"name": "projects",
					"outputs": [
						{
							"internalType": "uint256",
							"name": "",
							"type": "uint256"
						}
					],
					"stateMutability": "view",
					"type": "function"
				}
			],
			"devdoc": {
				"details": "Store & retrieve value in a variable",
				"kind": "dev",
				"methods": {},
				"title": "Storage",
				"version": 1
			},
			"evm": {
				"assembly": "    /* \"contracts/mycontract.sol\":142:671  contract startTrade {... */\n  mstore(0x40, 0x80)\n    /* \"contracts/mycontract.sol\":195:196  0 */\n  0x00\n    /* \"contracts/mycontract.sol\":169:196  uint256 public projects = 0 */\n  dup1\n  sstore\n    /* \"contracts/mycontract.sol\":644:666  constructor() {... */\n  callvalue\n  dup1\n  iszero\n  tag_1\n  jumpi\n  0x00\n  dup1\n  revert\ntag_1:\n  pop\n    /* \"contracts/mycontract.sol\":142:671  contract startTrade {... */\n  dataSize(sub_0)\n  dup1\n  dataOffset(sub_0)\n  0x00\n  codecopy\n  0x00\n  return\nstop\n\nsub_0: assembly {\n        /* \"contracts/mycontract.sol\":142:671  contract startTrade {... */\n      mstore(0x40, 0x80)\n      callvalue\n      dup1\n      iszero\n      tag_1\n      jumpi\n      0x00\n      dup1\n      revert\n    tag_1:\n      pop\n      jumpi(tag_2, lt(calldatasize, 0x04))\n      shr(0xe0, calldataload(0x00))\n      dup1\n      0x8b79543c\n      eq\n      tag_3\n      jumpi\n      dup1\n      0xa005ec7a\n      eq\n      tag_4\n      jumpi\n      dup1\n      0xce12a6a5\n      eq\n      tag_5\n      jumpi\n    tag_2:\n      0x00\n      dup1\n      revert\n        /* \"contracts/mycontract.sol\":169:196  uint256 public projects = 0 */\n    tag_3:\n      tag_6\n      tag_7\n      jump\t// in\n    tag_6:\n      mload(0x40)\n      tag_8\n      swap2\n      swap1\n      tag_9\n      jump\t// in\n    tag_8:\n      mload(0x40)\n      dup1\n      swap2\n      sub\n      swap1\n      return\n        /* \"contracts/mycontract.sol\":202:241  mapping(uint => Details) public details */\n    tag_4:\n      tag_10\n      0x04\n      dup1\n      calldatasize\n      sub\n      dup2\n      add\n      swap1\n      tag_11\n      swap2\n      swap1\n      tag_12\n      jump\t// in\n    tag_11:\n      tag_13\n      jump\t// in\n    tag_10:\n      mload(0x40)\n      tag_14\n      swap6\n      swap5\n      swap4\n      swap3\n      swap2\n      swap1\n      tag_15\n      jump\t// in\n    tag_14:\n      mload(0x40)\n      dup1\n      swap2\n      sub\n      swap1\n      return\n        /* \"contracts/mycontract.sol\":372:637  function addProject(uint price, string memory location, string memory prac, uint size  ) public {... */\n    tag_5:\n      tag_16\n      0x04\n      dup1\n      calldatasize\n      sub\n      dup2\n      add\n      swap1\n      tag_17\n      swap2\n      swap1\n      tag_18\n      jump\t// in\n    tag_17:\n      tag_19\n      jump\t// in\n    tag_16:\n      stop\n        /* \"contracts/mycontract.sol\":169:196  uint256 public projects = 0 */\n    tag_7:\n      sload(0x00)\n      dup2\n      jump\t// out\n        /* \"contracts/mycontract.sol\":202:241  mapping(uint => Details) public details */\n    tag_13:\n      mstore(0x20, 0x01)\n      dup1\n      0x00\n      mstore\n      keccak256(0x00, 0x40)\n      0x00\n      swap2\n      pop\n      swap1\n      pop\n      dup1\n      0x00\n      add\n      sload\n      swap1\n      dup1\n      0x01\n      add\n      sload\n      swap1\n      dup1\n      0x02\n      add\n      dup1\n      sload\n      tag_20\n      swap1\n      tag_21\n      jump\t// in\n    tag_20:\n      dup1\n      0x1f\n      add\n      0x20\n      dup1\n      swap2\n      div\n      mul\n      0x20\n      add\n      mload(0x40)\n      swap1\n      dup2\n      add\n      0x40\n      mstore\n      dup1\n      swap3\n      swap2\n      swap1\n      dup2\n      dup2\n      mstore\n      0x20\n      add\n      dup3\n      dup1\n      sload\n      tag_22\n      swap1\n      tag_21\n      jump\t// in\n    tag_22:\n      dup1\n      iszero\n      tag_23\n      jumpi\n      dup1\n      0x1f\n      lt\n      tag_24\n      jumpi\n      0x0100\n      dup1\n      dup4\n      sload\n      div\n      mul\n      dup4\n      mstore\n      swap2\n      0x20\n      add\n      swap2\n      jump(tag_23)\n    tag_24:\n      dup3\n      add\n      swap2\n      swap1\n      0x00\n      mstore\n      keccak256(0x00, 0x20)\n      swap1\n    tag_25:\n      dup2\n      sload\n      dup2\n      mstore\n      swap1\n      0x01\n      add\n      swap1\n      0x20\n      add\n      dup1\n      dup4\n      gt\n      tag_25\n      jumpi\n      dup3\n      swap1\n      sub\n      0x1f\n      and\n      dup3\n      add\n      swap2\n    tag_23:\n      pop\n      pop\n      pop\n      pop\n      pop\n      swap1\n      dup1\n      0x03\n      add\n      dup1\n      sload\n      tag_26\n      swap1\n      tag_21\n      jump\t// in\n    tag_26:\n      dup1\n      0x1f\n      add\n      0x20\n      dup1\n      swap2\n      div\n      mul\n      0x20\n      add\n      mload(0x40)\n      swap1\n      dup2\n      add\n      0x40\n      mstore\n      dup1\n      swap3\n      swap2\n      swap1\n      dup2\n      dup2\n      mstore\n      0x20\n      add\n      dup3\n      dup1\n      sload\n      tag_27\n      swap1\n      tag_21\n      jump\t// in\n    tag_27:\n      dup1\n      iszero\n      tag_28\n      jumpi\n      dup1\n      0x1f\n      lt\n      tag_29\n      jumpi\n      0x0100\n      dup1\n      dup4\n      sload\n      div\n      mul\n      dup4\n      mstore\n      swap2\n      0x20\n      add\n      swap2\n      jump(tag_28)\n    tag_29:\n      dup3\n      add\n      swap2\n      swap1\n      0x00\n      mstore\n      keccak256(0x00, 0x20)\n      swap1\n    tag_30:\n      dup2\n      sload\n      dup2\n      mstore\n      swap1\n      0x01\n      add\n      swap1\n      0x20\n      add\n      dup1\n      dup4\n      gt\n      tag_30\n      jumpi\n      dup3\n      swap1\n      sub\n      0x1f\n      and\n      dup3\n      add\n      swap2\n    tag_28:\n      pop\n      pop\n      pop\n      pop\n      pop\n      swap1\n      dup1\n      0x04\n      add\n      sload\n      swap1\n      pop\n      dup6\n      jump\t// out\n        /* \"contracts/mycontract.sol\":372:637  function addProject(uint price, string memory location, string memory prac, uint size  ) public {... */\n    tag_19:\n        /* \"contracts/mycontract.sol\":490:491  1 */\n      0x01\n        /* \"contracts/mycontract.sol\":478:486  projects */\n      0x00\n      dup1\n        /* \"contracts/mycontract.sol\":478:491  projects += 1 */\n      dup3\n      dup3\n      sload\n      tag_32\n      swap2\n      swap1\n      tag_33\n      jump\t// in\n    tag_32:\n      swap3\n      pop\n      pop\n      dup2\n      swap1\n      sstore\n      pop\n        /* \"contracts/mycontract.sol\":521:567  Details(projects, price, location, prac, size) */\n      mload(0x40)\n      dup1\n      0xa0\n      add\n      0x40\n      mstore\n      dup1\n        /* \"contracts/mycontract.sol\":529:537  projects */\n      sload(0x00)\n        /* \"contracts/mycontract.sol\":521:567  Details(projects, price, location, prac, size) */\n      dup2\n      mstore\n      0x20\n      add\n        /* \"contracts/mycontract.sol\":539:544  price */\n      dup6\n        /* \"contracts/mycontract.sol\":521:567  Details(projects, price, location, prac, size) */\n      dup2\n      mstore\n      0x20\n      add\n        /* \"contracts/mycontract.sol\":546:554  location */\n      dup5\n        /* \"contracts/mycontract.sol\":521:567  Details(projects, price, location, prac, size) */\n      dup2\n      mstore\n      0x20\n      add\n        /* \"contracts/mycontract.sol\":556:560  prac */\n      dup4\n        /* \"contracts/mycontract.sol\":521:567  Details(projects, price, location, prac, size) */\n      dup2\n      mstore\n      0x20\n      add\n        /* \"contracts/mycontract.sol\":562:566  size */\n      dup3\n        /* \"contracts/mycontract.sol\":521:567  Details(projects, price, location, prac, size) */\n      dup2\n      mstore\n      pop\n        /* \"contracts/mycontract.sol\":501:508  details */\n      0x01\n        /* \"contracts/mycontract.sol\":501:518  details[projects] */\n      0x00\n        /* \"contracts/mycontract.sol\":509:517  projects */\n      dup1\n      sload\n        /* \"contracts/mycontract.sol\":501:518  details[projects] */\n      dup2\n      mstore\n      0x20\n      add\n      swap1\n      dup2\n      mstore\n      0x20\n      add\n      0x00\n      keccak256\n        /* \"contracts/mycontract.sol\":501:567  details[projects] = Details(projects, price, location, prac, size) */\n      0x00\n      dup3\n      add\n      mload\n      dup2\n      0x00\n      add\n      sstore\n      0x20\n      dup3\n      add\n      mload\n      dup2\n      0x01\n      add\n      sstore\n      0x40\n      dup3\n      add\n      mload\n      dup2\n      0x02\n      add\n      swap1\n      dup1\n      mload\n      swap1\n      0x20\n      add\n      swap1\n      tag_34\n      swap3\n      swap2\n      swap1\n      tag_35\n      jump\t// in\n    tag_34:\n      pop\n      0x60\n      dup3\n      add\n      mload\n      dup2\n      0x03\n      add\n      swap1\n      dup1\n      mload\n      swap1\n      0x20\n      add\n      swap1\n      tag_36\n      swap3\n      swap2\n      swap1\n      tag_35\n      jump\t// in\n    tag_36:\n      pop\n      0x80\n      dup3\n      add\n      mload\n      dup2\n      0x04\n      add\n      sstore\n      swap1\n      pop\n      pop\n        /* \"contracts/mycontract.sol\":372:637  function addProject(uint price, string memory location, string memory prac, uint size  ) public {... */\n      pop\n      pop\n      pop\n      pop\n      jump\t// out\n    tag_35:\n      dup3\n      dup1\n      sload\n      tag_37\n      swap1\n      tag_21\n      jump\t// in\n    tag_37:\n      swap1\n      0x00\n      mstore\n      keccak256(0x00, 0x20)\n      swap1\n      0x1f\n      add\n      0x20\n      swap1\n      div\n      dup2\n      add\n      swap3\n      dup3\n      tag_39\n      jumpi\n      0x00\n      dup6\n      sstore\n      jump(tag_38)\n    tag_39:\n      dup3\n      0x1f\n      lt\n      tag_40\n      jumpi\n      dup1\n      mload\n      not(0xff)\n      and\n      dup4\n      dup1\n      add\n      or\n      dup6\n      sstore\n      jump(tag_38)\n    tag_40:\n      dup3\n      dup1\n      add\n      0x01\n      add\n      dup6\n      sstore\n      dup3\n      iszero\n      tag_38\n      jumpi\n      swap2\n      dup3\n      add\n    tag_41:\n      dup3\n      dup2\n      gt\n      iszero\n      tag_42\n      jumpi\n      dup3\n      mload\n      dup3\n      sstore\n      swap2\n      0x20\n      add\n      swap2\n      swap1\n      0x01\n      add\n      swap1\n      jump(tag_41)\n    tag_42:\n    tag_38:\n      pop\n      swap1\n      pop\n      tag_43\n      swap2\n      swap1\n      tag_44\n      jump\t// in\n    tag_43:\n      pop\n      swap1\n      jump\t// out\n    tag_44:\n    tag_45:\n      dup1\n      dup3\n      gt\n      iszero\n      tag_46\n      jumpi\n      0x00\n      dup2\n      0x00\n      swap1\n      sstore\n      pop\n      0x01\n      add\n      jump(tag_45)\n    tag_46:\n      pop\n      swap1\n      jump\t// out\n        /* \"#utility.yul\":7:84   */\n    tag_47:\n        /* \"#utility.yul\":44:51   */\n      0x00\n        /* \"#utility.yul\":73:78   */\n      dup2\n        /* \"#utility.yul\":62:78   */\n      swap1\n      pop\n        /* \"#utility.yul\":7:84   */\n      swap2\n      swap1\n      pop\n      jump\t// out\n        /* \"#utility.yul\":90:208   */\n    tag_48:\n        /* \"#utility.yul\":177:201   */\n      tag_73\n        /* \"#utility.yul\":195:200   */\n      dup2\n        /* \"#utility.yul\":177:201   */\n      tag_47\n      jump\t// in\n    tag_73:\n        /* \"#utility.yul\":172:175   */\n      dup3\n        /* \"#utility.yul\":165:202   */\n      mstore\n        /* \"#utility.yul\":90:208   */\n      pop\n      pop\n      jump\t// out\n        /* \"#utility.yul\":214:436   */\n    tag_9:\n        /* \"#utility.yul\":307:311   */\n      0x00\n        /* \"#utility.yul\":345:347   */\n      0x20\n        /* \"#utility.yul\":334:343   */\n      dup3\n        /* \"#utility.yul\":330:348   */\n      add\n        /* \"#utility.yul\":322:348   */\n      swap1\n      pop\n        /* \"#utility.yul\":358:429   */\n      tag_75\n        /* \"#utility.yul\":426:427   */\n      0x00\n        /* \"#utility.yul\":415:424   */\n      dup4\n        /* \"#utility.yul\":411:428   */\n      add\n        /* \"#utility.yul\":402:408   */\n      dup5\n        /* \"#utility.yul\":358:429   */\n      tag_48\n      jump\t// in\n    tag_75:\n        /* \"#utility.yul\":214:436   */\n      swap3\n      swap2\n      pop\n      pop\n      jump\t// out\n        /* \"#utility.yul\":442:517   */\n    tag_49:\n        /* \"#utility.yul\":475:481   */\n      0x00\n        /* \"#utility.yul\":508:510   */\n      0x40\n        /* \"#utility.yul\":502:511   */\n      mload\n        /* \"#utility.yul\":492:511   */\n      swap1\n      pop\n        /* \"#utility.yul\":442:517   */\n      swap1\n      jump\t// out\n        /* \"#utility.yul\":523:640   */\n    tag_50:\n        /* \"#utility.yul\":632:633   */\n      0x00\n        /* \"#utility.yul\":629:630   */\n      dup1\n        /* \"#utility.yul\":622:634   */\n      revert\n        /* \"#utility.yul\":646:763   */\n    tag_51:\n        /* \"#utility.yul\":755:756   */\n      0x00\n        /* \"#utility.yul\":752:753   */\n      dup1\n        /* \"#utility.yul\":745:757   */\n      revert\n        /* \"#utility.yul\":769:891   */\n    tag_52:\n        /* \"#utility.yul\":842:866   */\n      tag_80\n        /* \"#utility.yul\":860:865   */\n      dup2\n        /* \"#utility.yul\":842:866   */\n      tag_47\n      jump\t// in\n    tag_80:\n        /* \"#utility.yul\":835:840   */\n      dup2\n        /* \"#utility.yul\":832:867   */\n      eq\n        /* \"#utility.yul\":822:885   */\n      tag_81\n      jumpi\n        /* \"#utility.yul\":881:882   */\n      0x00\n        /* \"#utility.yul\":878:879   */\n      dup1\n        /* \"#utility.yul\":871:883   */\n      revert\n        /* \"#utility.yul\":822:885   */\n    tag_81:\n        /* \"#utility.yul\":769:891   */\n      pop\n      jump\t// out\n        /* \"#utility.yul\":897:1036   */\n    tag_53:\n        /* \"#utility.yul\":943:948   */\n      0x00\n        /* \"#utility.yul\":981:987   */\n      dup2\n        /* \"#utility.yul\":968:988   */\n      calldataload\n        /* \"#utility.yul\":959:988   */\n      swap1\n      pop\n        /* \"#utility.yul\":997:1030   */\n      tag_83\n        /* \"#utility.yul\":1024:1029   */\n      dup2\n        /* \"#utility.yul\":997:1030   */\n      tag_52\n      jump\t// in\n    tag_83:\n        /* \"#utility.yul\":897:1036   */\n      swap3\n      swap2\n      pop\n      pop\n      jump\t// out\n        /* \"#utility.yul\":1042:1371   */\n    tag_12:\n        /* \"#utility.yul\":1101:1107   */\n      0x00\n        /* \"#utility.yul\":1150:1152   */\n      0x20\n        /* \"#utility.yul\":1138:1147   */\n      dup3\n        /* \"#utility.yul\":1129:1136   */\n      dup5\n        /* \"#utility.yul\":1125:1148   */\n      sub\n        /* \"#utility.yul\":1121:1153   */\n      slt\n        /* \"#utility.yul\":1118:1237   */\n      iszero\n      tag_85\n      jumpi\n        /* \"#utility.yul\":1156:1235   */\n      tag_86\n      tag_50\n      jump\t// in\n    tag_86:\n        /* \"#utility.yul\":1118:1237   */\n    tag_85:\n        /* \"#utility.yul\":1276:1277   */\n      0x00\n        /* \"#utility.yul\":1301:1354   */\n      tag_87\n        /* \"#utility.yul\":1346:1353   */\n      dup5\n        /* \"#utility.yul\":1337:1343   */\n      dup3\n        /* \"#utility.yul\":1326:1335   */\n      dup6\n        /* \"#utility.yul\":1322:1344   */\n      add\n        /* \"#utility.yul\":1301:1354   */\n      tag_53\n      jump\t// in\n    tag_87:\n        /* \"#utility.yul\":1291:1354   */\n      swap2\n      pop\n        /* \"#utility.yul\":1247:1364   */\n      pop\n        /* \"#utility.yul\":1042:1371   */\n      swap3\n      swap2\n      pop\n      pop\n      jump\t// out\n        /* \"#utility.yul\":1377:1476   */\n    tag_54:\n        /* \"#utility.yul\":1429:1435   */\n      0x00\n        /* \"#utility.yul\":1463:1468   */\n      dup2\n        /* \"#utility.yul\":1457:1469   */\n      mload\n        /* \"#utility.yul\":1447:1469   */\n      swap1\n      pop\n        /* \"#utility.yul\":1377:1476   */\n      swap2\n      swap1\n      pop\n      jump\t// out\n        /* \"#utility.yul\":1482:1651   */\n    tag_55:\n        /* \"#utility.yul\":1566:1577   */\n      0x00\n        /* \"#utility.yul\":1600:1606   */\n      dup3\n        /* \"#utility.yul\":1595:1598   */\n      dup3\n        /* \"#utility.yul\":1588:1607   */\n      mstore\n        /* \"#utility.yul\":1640:1644   */\n      0x20\n        /* \"#utility.yul\":1635:1638   */\n      dup3\n        /* \"#utility.yul\":1631:1645   */\n      add\n        /* \"#utility.yul\":1616:1645   */\n      swap1\n      pop\n        /* \"#utility.yul\":1482:1651   */\n      swap3\n      swap2\n      pop\n      pop\n      jump\t// out\n        /* \"#utility.yul\":1657:1964   */\n    tag_56:\n        /* \"#utility.yul\":1725:1726   */\n      0x00\n        /* \"#utility.yul\":1735:1848   */\n    tag_91:\n        /* \"#utility.yul\":1749:1755   */\n      dup4\n        /* \"#utility.yul\":1746:1747   */\n      dup2\n        /* \"#utility.yul\":1743:1756   */\n      lt\n        /* \"#utility.yul\":1735:1848   */\n      iszero\n      tag_93\n      jumpi\n        /* \"#utility.yul\":1834:1835   */\n      dup1\n        /* \"#utility.yul\":1829:1832   */\n      dup3\n        /* \"#utility.yul\":1825:1836   */\n      add\n        /* \"#utility.yul\":1819:1837   */\n      mload\n        /* \"#utility.yul\":1815:1816   */\n      dup2\n        /* \"#utility.yul\":1810:1813   */\n      dup5\n        /* \"#utility.yul\":1806:1817   */\n      add\n        /* \"#utility.yul\":1799:1838   */\n      mstore\n        /* \"#utility.yul\":1771:1773   */\n      0x20\n        /* \"#utility.yul\":1768:1769   */\n      dup2\n        /* \"#utility.yul\":1764:1774   */\n      add\n        /* \"#utility.yul\":1759:1774   */\n      swap1\n      pop\n        /* \"#utility.yul\":1735:1848   */\n      jump(tag_91)\n    tag_93:\n        /* \"#utility.yul\":1866:1872   */\n      dup4\n        /* \"#utility.yul\":1863:1864   */\n      dup2\n        /* \"#utility.yul\":1860:1873   */\n      gt\n        /* \"#utility.yul\":1857:1958   */\n      iszero\n      tag_94\n      jumpi\n        /* \"#utility.yul\":1946:1947   */\n      0x00\n        /* \"#utility.yul\":1937:1943   */\n      dup5\n        /* \"#utility.yul\":1932:1935   */\n      dup5\n        /* \"#utility.yul\":1928:1944   */\n      add\n        /* \"#utility.yul\":1921:1948   */\n      mstore\n        /* \"#utility.yul\":1857:1958   */\n    tag_94:\n        /* \"#utility.yul\":1706:1964   */\n      pop\n        /* \"#utility.yul\":1657:1964   */\n      pop\n      pop\n      pop\n      jump\t// out\n        /* \"#utility.yul\":1970:2072   */\n    tag_57:\n        /* \"#utility.yul\":2011:2017   */\n      0x00\n        /* \"#utility.yul\":2062:2064   */\n      0x1f\n        /* \"#utility.yul\":2058:2065   */\n      not\n        /* \"#utility.yul\":2053:2055   */\n      0x1f\n        /* \"#utility.yul\":2046:2051   */\n      dup4\n        /* \"#utility.yul\":2042:2056   */\n      add\n        /* \"#utility.yul\":2038:2066   */\n      and\n        /* \"#utility.yul\":2028:2066   */\n      swap1\n      pop\n        /* \"#utility.yul\":1970:2072   */\n      swap2\n      swap1\n      pop\n      jump\t// out\n        /* \"#utility.yul\":2078:2442   */\n    tag_58:\n        /* \"#utility.yul\":2166:2169   */\n      0x00\n        /* \"#utility.yul\":2194:2233   */\n      tag_97\n        /* \"#utility.yul\":2227:2232   */\n      dup3\n        /* \"#utility.yul\":2194:2233   */\n      tag_54\n      jump\t// in\n    tag_97:\n        /* \"#utility.yul\":2249:2320   */\n      tag_98\n        /* \"#utility.yul\":2313:2319   */\n      dup2\n        /* \"#utility.yul\":2308:2311   */\n      dup6\n        /* \"#utility.yul\":2249:2320   */\n      tag_55\n      jump\t// in\n    tag_98:\n        /* \"#utility.yul\":2242:2320   */\n      swap4\n      pop\n        /* \"#utility.yul\":2329:2381   */\n      tag_99\n        /* \"#utility.yul\":2374:2380   */\n      dup2\n        /* \"#utility.yul\":2369:2372   */\n      dup6\n        /* \"#utility.yul\":2362:2366   */\n      0x20\n        /* \"#utility.yul\":2355:2360   */\n      dup7\n        /* \"#utility.yul\":2351:2367   */\n      add\n        /* \"#utility.yul\":2329:2381   */\n      tag_56\n      jump\t// in\n    tag_99:\n        /* \"#utility.yul\":2406:2435   */\n      tag_100\n        /* \"#utility.yul\":2428:2434   */\n      dup2\n        /* \"#utility.yul\":2406:2435   */\n      tag_57\n      jump\t// in\n    tag_100:\n        /* \"#utility.yul\":2401:2404   */\n      dup5\n        /* \"#utility.yul\":2397:2436   */\n      add\n        /* \"#utility.yul\":2390:2436   */\n      swap2\n      pop\n        /* \"#utility.yul\":2170:2442   */\n      pop\n        /* \"#utility.yul\":2078:2442   */\n      swap3\n      swap2\n      pop\n      pop\n      jump\t// out\n        /* \"#utility.yul\":2448:3294   */\n    tag_15:\n        /* \"#utility.yul\":2693:2697   */\n      0x00\n        /* \"#utility.yul\":2731:2734   */\n      0xa0\n        /* \"#utility.yul\":2720:2729   */\n      dup3\n        /* \"#utility.yul\":2716:2735   */\n      add\n        /* \"#utility.yul\":2708:2735   */\n      swap1\n      pop\n        /* \"#utility.yul\":2745:2816   */\n      tag_102\n        /* \"#utility.yul\":2813:2814   */\n      0x00\n        /* \"#utility.yul\":2802:2811   */\n      dup4\n        /* \"#utility.yul\":2798:2815   */\n      add\n        /* \"#utility.yul\":2789:2795   */\n      dup9\n        /* \"#utility.yul\":2745:2816   */\n      tag_48\n      jump\t// in\n    tag_102:\n        /* \"#utility.yul\":2826:2898   */\n      tag_103\n        /* \"#utility.yul\":2894:2896   */\n      0x20\n        /* \"#utility.yul\":2883:2892   */\n      dup4\n        /* \"#utility.yul\":2879:2897   */\n      add\n        /* \"#utility.yul\":2870:2876   */\n      dup8\n        /* \"#utility.yul\":2826:2898   */\n      tag_48\n      jump\t// in\n    tag_103:\n        /* \"#utility.yul\":2945:2954   */\n      dup2\n        /* \"#utility.yul\":2939:2943   */\n      dup2\n        /* \"#utility.yul\":2935:2955   */\n      sub\n        /* \"#utility.yul\":2930:2932   */\n      0x40\n        /* \"#utility.yul\":2919:2928   */\n      dup4\n        /* \"#utility.yul\":2915:2933   */\n      add\n        /* \"#utility.yul\":2908:2956   */\n      mstore\n        /* \"#utility.yul\":2973:3051   */\n      tag_104\n        /* \"#utility.yul\":3046:3050   */\n      dup2\n        /* \"#utility.yul\":3037:3043   */\n      dup7\n        /* \"#utility.yul\":2973:3051   */\n      tag_58\n      jump\t// in\n    tag_104:\n        /* \"#utility.yul\":2965:3051   */\n      swap1\n      pop\n        /* \"#utility.yul\":3098:3107   */\n      dup2\n        /* \"#utility.yul\":3092:3096   */\n      dup2\n        /* \"#utility.yul\":3088:3108   */\n      sub\n        /* \"#utility.yul\":3083:3085   */\n      0x60\n        /* \"#utility.yul\":3072:3081   */\n      dup4\n        /* \"#utility.yul\":3068:3086   */\n      add\n        /* \"#utility.yul\":3061:3109   */\n      mstore\n        /* \"#utility.yul\":3126:3204   */\n      tag_105\n        /* \"#utility.yul\":3199:3203   */\n      dup2\n        /* \"#utility.yul\":3190:3196   */\n      dup6\n        /* \"#utility.yul\":3126:3204   */\n      tag_58\n      jump\t// in\n    tag_105:\n        /* \"#utility.yul\":3118:3204   */\n      swap1\n      pop\n        /* \"#utility.yul\":3214:3287   */\n      tag_106\n        /* \"#utility.yul\":3282:3285   */\n      0x80\n        /* \"#utility.yul\":3271:3280   */\n      dup4\n        /* \"#utility.yul\":3267:3286   */\n      add\n        /* \"#utility.yul\":3258:3264   */\n      dup5\n        /* \"#utility.yul\":3214:3287   */\n      tag_48\n      jump\t// in\n    tag_106:\n        /* \"#utility.yul\":2448:3294   */\n      swap7\n      swap6\n      pop\n      pop\n      pop\n      pop\n      pop\n      pop\n      jump\t// out\n        /* \"#utility.yul\":3300:3417   */\n    tag_59:\n        /* \"#utility.yul\":3409:3410   */\n      0x00\n        /* \"#utility.yul\":3406:3407   */\n      dup1\n        /* \"#utility.yul\":3399:3411   */\n      revert\n        /* \"#utility.yul\":3423:3540   */\n    tag_60:\n        /* \"#utility.yul\":3532:3533   */\n      0x00\n        /* \"#utility.yul\":3529:3530   */\n      dup1\n        /* \"#utility.yul\":3522:3534   */\n      revert\n        /* \"#utility.yul\":3546:3726   */\n    tag_61:\n        /* \"#utility.yul\":3594:3671   */\n      0x4e487b7100000000000000000000000000000000000000000000000000000000\n        /* \"#utility.yul\":3591:3592   */\n      0x00\n        /* \"#utility.yul\":3584:3672   */\n      mstore\n        /* \"#utility.yul\":3691:3695   */\n      0x41\n        /* \"#utility.yul\":3688:3689   */\n      0x04\n        /* \"#utility.yul\":3681:3696   */\n      mstore\n        /* \"#utility.yul\":3715:3719   */\n      0x24\n        /* \"#utility.yul\":3712:3713   */\n      0x00\n        /* \"#utility.yul\":3705:3720   */\n      revert\n        /* \"#utility.yul\":3732:4013   */\n    tag_62:\n        /* \"#utility.yul\":3815:3842   */\n      tag_111\n        /* \"#utility.yul\":3837:3841   */\n      dup3\n        /* \"#utility.yul\":3815:3842   */\n      tag_57\n      jump\t// in\n    tag_111:\n        /* \"#utility.yul\":3807:3813   */\n      dup2\n        /* \"#utility.yul\":3803:3843   */\n      add\n        /* \"#utility.yul\":3945:3951   */\n      dup2\n        /* \"#utility.yul\":3933:3943   */\n      dup2\n        /* \"#utility.yul\":3930:3952   */\n      lt\n        /* \"#utility.yul\":3909:3927   */\n      0xffffffffffffffff\n        /* \"#utility.yul\":3897:3907   */\n      dup3\n        /* \"#utility.yul\":3894:3928   */\n      gt\n        /* \"#utility.yul\":3891:3953   */\n      or\n        /* \"#utility.yul\":3888:3976   */\n      iszero\n      tag_112\n      jumpi\n        /* \"#utility.yul\":3956:3974   */\n      tag_113\n      tag_61\n      jump\t// in\n    tag_113:\n        /* \"#utility.yul\":3888:3976   */\n    tag_112:\n        /* \"#utility.yul\":3996:4006   */\n      dup1\n        /* \"#utility.yul\":3992:3994   */\n      0x40\n        /* \"#utility.yul\":3985:4007   */\n      mstore\n        /* \"#utility.yul\":3775:4013   */\n      pop\n        /* \"#utility.yul\":3732:4013   */\n      pop\n      pop\n      jump\t// out\n        /* \"#utility.yul\":4019:4148   */\n    tag_63:\n        /* \"#utility.yul\":4053:4059   */\n      0x00\n        /* \"#utility.yul\":4080:4100   */\n      tag_115\n      tag_49\n      jump\t// in\n    tag_115:\n        /* \"#utility.yul\":4070:4100   */\n      swap1\n      pop\n        /* \"#utility.yul\":4109:4142   */\n      tag_116\n        /* \"#utility.yul\":4137:4141   */\n      dup3\n        /* \"#utility.yul\":4129:4135   */\n      dup3\n        /* \"#utility.yul\":4109:4142   */\n      tag_62\n      jump\t// in\n    tag_116:\n        /* \"#utility.yul\":4019:4148   */\n      swap2\n      swap1\n      pop\n      jump\t// out\n        /* \"#utility.yul\":4154:4462   */\n    tag_64:\n        /* \"#utility.yul\":4216:4220   */\n      0x00\n        /* \"#utility.yul\":4306:4324   */\n      0xffffffffffffffff\n        /* \"#utility.yul\":4298:4304   */\n      dup3\n        /* \"#utility.yul\":4295:4325   */\n      gt\n        /* \"#utility.yul\":4292:4348   */\n      iszero\n      tag_118\n      jumpi\n        /* \"#utility.yul\":4328:4346   */\n      tag_119\n      tag_61\n      jump\t// in\n    tag_119:\n        /* \"#utility.yul\":4292:4348   */\n    tag_118:\n        /* \"#utility.yul\":4366:4395   */\n      tag_120\n        /* \"#utility.yul\":4388:4394   */\n      dup3\n        /* \"#utility.yul\":4366:4395   */\n      tag_57\n      jump\t// in\n    tag_120:\n        /* \"#utility.yul\":4358:4395   */\n      swap1\n      pop\n        /* \"#utility.yul\":4450:4454   */\n      0x20\n        /* \"#utility.yul\":4444:4448   */\n      dup2\n        /* \"#utility.yul\":4440:4455   */\n      add\n        /* \"#utility.yul\":4432:4455   */\n      swap1\n      pop\n        /* \"#utility.yul\":4154:4462   */\n      swap2\n      swap1\n      pop\n      jump\t// out\n        /* \"#utility.yul\":4468:4622   */\n    tag_65:\n        /* \"#utility.yul\":4552:4558   */\n      dup3\n        /* \"#utility.yul\":4547:4550   */\n      dup2\n        /* \"#utility.yul\":4542:4545   */\n      dup4\n        /* \"#utility.yul\":4529:4559   */\n      calldatacopy\n        /* \"#utility.yul\":4614:4615   */\n      0x00\n        /* \"#utility.yul\":4605:4611   */\n      dup4\n        /* \"#utility.yul\":4600:4603   */\n      dup4\n        /* \"#utility.yul\":4596:4612   */\n      add\n        /* \"#utility.yul\":4589:4616   */\n      mstore\n        /* \"#utility.yul\":4468:4622   */\n      pop\n      pop\n      pop\n      jump\t// out\n        /* \"#utility.yul\":4628:5040   */\n    tag_66:\n        /* \"#utility.yul\":4706:4711   */\n      0x00\n        /* \"#utility.yul\":4731:4797   */\n      tag_123\n        /* \"#utility.yul\":4747:4796   */\n      tag_124\n        /* \"#utility.yul\":4789:4795   */\n      dup5\n        /* \"#utility.yul\":4747:4796   */\n      tag_64\n      jump\t// in\n    tag_124:\n        /* \"#utility.yul\":4731:4797   */\n      tag_63\n      jump\t// in\n    tag_123:\n        /* \"#utility.yul\":4722:4797   */\n      swap1\n      pop\n        /* \"#utility.yul\":4820:4826   */\n      dup3\n        /* \"#utility.yul\":4813:4818   */\n      dup2\n        /* \"#utility.yul\":4806:4827   */\n      mstore\n        /* \"#utility.yul\":4858:4862   */\n      0x20\n        /* \"#utility.yul\":4851:4856   */\n      dup2\n        /* \"#utility.yul\":4847:4863   */\n      add\n        /* \"#utility.yul\":4896:4899   */\n      dup5\n        /* \"#utility.yul\":4887:4893   */\n      dup5\n        /* \"#utility.yul\":4882:4885   */\n      dup5\n        /* \"#utility.yul\":4878:4894   */\n      add\n        /* \"#utility.yul\":4875:4900   */\n      gt\n        /* \"#utility.yul\":4872:4984   */\n      iszero\n      tag_125\n      jumpi\n        /* \"#utility.yul\":4903:4982   */\n      tag_126\n      tag_60\n      jump\t// in\n    tag_126:\n        /* \"#utility.yul\":4872:4984   */\n    tag_125:\n        /* \"#utility.yul\":4993:5034   */\n      tag_127\n        /* \"#utility.yul\":5027:5033   */\n      dup5\n        /* \"#utility.yul\":5022:5025   */\n      dup3\n        /* \"#utility.yul\":5017:5020   */\n      dup6\n        /* \"#utility.yul\":4993:5034   */\n      tag_65\n      jump\t// in\n    tag_127:\n        /* \"#utility.yul\":4712:5040   */\n      pop\n        /* \"#utility.yul\":4628:5040   */\n      swap4\n      swap3\n      pop\n      pop\n      pop\n      jump\t// out\n        /* \"#utility.yul\":5060:5400   */\n    tag_67:\n        /* \"#utility.yul\":5116:5121   */\n      0x00\n        /* \"#utility.yul\":5165:5168   */\n      dup3\n        /* \"#utility.yul\":5158:5162   */\n      0x1f\n        /* \"#utility.yul\":5150:5156   */\n      dup4\n        /* \"#utility.yul\":5146:5163   */\n      add\n        /* \"#utility.yul\":5142:5169   */\n      slt\n        /* \"#utility.yul\":5132:5254   */\n      tag_129\n      jumpi\n        /* \"#utility.yul\":5173:5252   */\n      tag_130\n      tag_59\n      jump\t// in\n    tag_130:\n        /* \"#utility.yul\":5132:5254   */\n    tag_129:\n        /* \"#utility.yul\":5290:5296   */\n      dup2\n        /* \"#utility.yul\":5277:5297   */\n      calldataload\n        /* \"#utility.yul\":5315:5394   */\n      tag_131\n        /* \"#utility.yul\":5390:5393   */\n      dup5\n        /* \"#utility.yul\":5382:5388   */\n      dup3\n        /* \"#utility.yul\":5375:5379   */\n      0x20\n        /* \"#utility.yul\":5367:5373   */\n      dup7\n        /* \"#utility.yul\":5363:5380   */\n      add\n        /* \"#utility.yul\":5315:5394   */\n      tag_66\n      jump\t// in\n    tag_131:\n        /* \"#utility.yul\":5306:5394   */\n      swap2\n      pop\n        /* \"#utility.yul\":5122:5400   */\n      pop\n        /* \"#utility.yul\":5060:5400   */\n      swap3\n      swap2\n      pop\n      pop\n      jump\t// out\n        /* \"#utility.yul\":5406:6531   */\n    tag_18:\n        /* \"#utility.yul\":5512:5518   */\n      0x00\n        /* \"#utility.yul\":5520:5526   */\n      dup1\n        /* \"#utility.yul\":5528:5534   */\n      0x00\n        /* \"#utility.yul\":5536:5542   */\n      dup1\n        /* \"#utility.yul\":5585:5588   */\n      0x80\n        /* \"#utility.yul\":5573:5582   */\n      dup6\n        /* \"#utility.yul\":5564:5571   */\n      dup8\n        /* \"#utility.yul\":5560:5583   */\n      sub\n        /* \"#utility.yul\":5556:5589   */\n      slt\n        /* \"#utility.yul\":5553:5673   */\n      iszero\n      tag_133\n      jumpi\n        /* \"#utility.yul\":5592:5671   */\n      tag_134\n      tag_50\n      jump\t// in\n    tag_134:\n        /* \"#utility.yul\":5553:5673   */\n    tag_133:\n        /* \"#utility.yul\":5712:5713   */\n      0x00\n        /* \"#utility.yul\":5737:5790   */\n      tag_135\n        /* \"#utility.yul\":5782:5789   */\n      dup8\n        /* \"#utility.yul\":5773:5779   */\n      dup3\n        /* \"#utility.yul\":5762:5771   */\n      dup9\n        /* \"#utility.yul\":5758:5780   */\n      add\n        /* \"#utility.yul\":5737:5790   */\n      tag_53\n      jump\t// in\n    tag_135:\n        /* \"#utility.yul\":5727:5790   */\n      swap5\n      pop\n        /* \"#utility.yul\":5683:5800   */\n      pop\n        /* \"#utility.yul\":5867:5869   */\n      0x20\n        /* \"#utility.yul\":5856:5865   */\n      dup6\n        /* \"#utility.yul\":5852:5870   */\n      add\n        /* \"#utility.yul\":5839:5871   */\n      calldataload\n        /* \"#utility.yul\":5898:5916   */\n      0xffffffffffffffff\n        /* \"#utility.yul\":5890:5896   */\n      dup2\n        /* \"#utility.yul\":5887:5917   */\n      gt\n        /* \"#utility.yul\":5884:6001   */\n      iszero\n      tag_136\n      jumpi\n        /* \"#utility.yul\":5920:5999   */\n      tag_137\n      tag_51\n      jump\t// in\n    tag_137:\n        /* \"#utility.yul\":5884:6001   */\n    tag_136:\n        /* \"#utility.yul\":6025:6088   */\n      tag_138\n        /* \"#utility.yul\":6080:6087   */\n      dup8\n        /* \"#utility.yul\":6071:6077   */\n      dup3\n        /* \"#utility.yul\":6060:6069   */\n      dup9\n        /* \"#utility.yul\":6056:6078   */\n      add\n        /* \"#utility.yul\":6025:6088   */\n      tag_67\n      jump\t// in\n    tag_138:\n        /* \"#utility.yul\":6015:6088   */\n      swap4\n      pop\n        /* \"#utility.yul\":5810:6098   */\n      pop\n        /* \"#utility.yul\":6165:6167   */\n      0x40\n        /* \"#utility.yul\":6154:6163   */\n      dup6\n        /* \"#utility.yul\":6150:6168   */\n      add\n        /* \"#utility.yul\":6137:6169   */\n      calldataload\n        /* \"#utility.yul\":6196:6214   */\n      0xffffffffffffffff\n        /* \"#utility.yul\":6188:6194   */\n      dup2\n        /* \"#utility.yul\":6185:6215   */\n      gt\n        /* \"#utility.yul\":6182:6299   */\n      iszero\n      tag_139\n      jumpi\n        /* \"#utility.yul\":6218:6297   */\n      tag_140\n      tag_51\n      jump\t// in\n    tag_140:\n        /* \"#utility.yul\":6182:6299   */\n    tag_139:\n        /* \"#utility.yul\":6323:6386   */\n      tag_141\n        /* \"#utility.yul\":6378:6385   */\n      dup8\n        /* \"#utility.yul\":6369:6375   */\n      dup3\n        /* \"#utility.yul\":6358:6367   */\n      dup9\n        /* \"#utility.yul\":6354:6376   */\n      add\n        /* \"#utility.yul\":6323:6386   */\n      tag_67\n      jump\t// in\n    tag_141:\n        /* \"#utility.yul\":6313:6386   */\n      swap3\n      pop\n        /* \"#utility.yul\":6108:6396   */\n      pop\n        /* \"#utility.yul\":6435:6437   */\n      0x60\n        /* \"#utility.yul\":6461:6514   */\n      tag_142\n        /* \"#utility.yul\":6506:6513   */\n      dup8\n        /* \"#utility.yul\":6497:6503   */\n      dup3\n        /* \"#utility.yul\":6486:6495   */\n      dup9\n        /* \"#utility.yul\":6482:6504   */\n      add\n        /* \"#utility.yul\":6461:6514   */\n      tag_53\n      jump\t// in\n    tag_142:\n        /* \"#utility.yul\":6451:6514   */\n      swap2\n      pop\n        /* \"#utility.yul\":6406:6524   */\n      pop\n        /* \"#utility.yul\":5406:6531   */\n      swap3\n      swap6\n      swap2\n      swap5\n      pop\n      swap3\n      pop\n      jump\t// out\n        /* \"#utility.yul\":6537:6717   */\n    tag_68:\n        /* \"#utility.yul\":6585:6662   */\n      0x4e487b7100000000000000000000000000000000000000000000000000000000\n        /* \"#utility.yul\":6582:6583   */\n      0x00\n        /* \"#utility.yul\":6575:6663   */\n      mstore\n        /* \"#utility.yul\":6682:6686   */\n      0x22\n        /* \"#utility.yul\":6679:6680   */\n      0x04\n        /* \"#utility.yul\":6672:6687   */\n      mstore\n        /* \"#utility.yul\":6706:6710   */\n      0x24\n        /* \"#utility.yul\":6703:6704   */\n      0x00\n        /* \"#utility.yul\":6696:6711   */\n      revert\n        /* \"#utility.yul\":6723:7043   */\n    tag_21:\n        /* \"#utility.yul\":6767:6773   */\n      0x00\n        /* \"#utility.yul\":6804:6805   */\n      0x02\n        /* \"#utility.yul\":6798:6802   */\n      dup3\n        /* \"#utility.yul\":6794:6806   */\n      div\n        /* \"#utility.yul\":6784:6806   */\n      swap1\n      pop\n        /* \"#utility.yul\":6851:6852   */\n      0x01\n        /* \"#utility.yul\":6845:6849   */\n      dup3\n        /* \"#utility.yul\":6841:6853   */\n      and\n        /* \"#utility.yul\":6872:6890   */\n      dup1\n        /* \"#utility.yul\":6862:6943   */\n      tag_145\n      jumpi\n        /* \"#utility.yul\":6928:6932   */\n      0x7f\n        /* \"#utility.yul\":6920:6926   */\n      dup3\n        /* \"#utility.yul\":6916:6933   */\n      and\n        /* \"#utility.yul\":6906:6933   */\n      swap2\n      pop\n        /* \"#utility.yul\":6862:6943   */\n    tag_145:\n        /* \"#utility.yul\":6990:6992   */\n      0x20\n        /* \"#utility.yul\":6982:6988   */\n      dup3\n        /* \"#utility.yul\":6979:6993   */\n      lt\n        /* \"#utility.yul\":6959:6977   */\n      dup2\n        /* \"#utility.yul\":6956:6994   */\n      sub\n        /* \"#utility.yul\":6953:7037   */\n      tag_146\n      jumpi\n        /* \"#utility.yul\":7009:7027   */\n      tag_147\n      tag_68\n      jump\t// in\n    tag_147:\n        /* \"#utility.yul\":6953:7037   */\n    tag_146:\n        /* \"#utility.yul\":6774:7043   */\n      pop\n        /* \"#utility.yul\":6723:7043   */\n      swap2\n      swap1\n      pop\n      jump\t// out\n        /* \"#utility.yul\":7049:7229   */\n    tag_69:\n        /* \"#utility.yul\":7097:7174   */\n      0x4e487b7100000000000000000000000000000000000000000000000000000000\n        /* \"#utility.yul\":7094:7095   */\n      0x00\n        /* \"#utility.yul\":7087:7175   */\n      mstore\n        /* \"#utility.yul\":7194:7198   */\n      0x11\n        /* \"#utility.yul\":7191:7192   */\n      0x04\n        /* \"#utility.yul\":7184:7199   */\n      mstore\n        /* \"#utility.yul\":7218:7222   */\n      0x24\n        /* \"#utility.yul\":7215:7216   */\n      0x00\n        /* \"#utility.yul\":7208:7223   */\n      revert\n        /* \"#utility.yul\":7235:7540   */\n    tag_33:\n        /* \"#utility.yul\":7275:7278   */\n      0x00\n        /* \"#utility.yul\":7294:7314   */\n      tag_150\n        /* \"#utility.yul\":7312:7313   */\n      dup3\n        /* \"#utility.yul\":7294:7314   */\n      tag_47\n      jump\t// in\n    tag_150:\n        /* \"#utility.yul\":7289:7314   */\n      swap2\n      pop\n        /* \"#utility.yul\":7328:7348   */\n      tag_151\n        /* \"#utility.yul\":7346:7347   */\n      dup4\n        /* \"#utility.yul\":7328:7348   */\n      tag_47\n      jump\t// in\n    tag_151:\n        /* \"#utility.yul\":7323:7348   */\n      swap3\n      pop\n        /* \"#utility.yul\":7482:7483   */\n      dup3\n        /* \"#utility.yul\":7414:7480   */\n      0xffffffffffffffffffffffffffffffffffffffffffffffffffffffffffffffff\n        /* \"#utility.yul\":7410:7484   */\n      sub\n        /* \"#utility.yul\":7407:7408   */\n      dup3\n        /* \"#utility.yul\":7404:7485   */\n      gt\n        /* \"#utility.yul\":7401:7508   */\n      iszero\n      tag_152\n      jumpi\n        /* \"#utility.yul\":7488:7506   */\n      tag_153\n      tag_69\n      jump\t// in\n    tag_153:\n        /* \"#utility.yul\":7401:7508   */\n    tag_152:\n        /* \"#utility.yul\":7532:7533   */\n      dup3\n        /* \"#utility.yul\":7529:7530   */\n      dup3\n        /* \"#utility.yul\":7525:7534   */\n      add\n        /* \"#utility.yul\":7518:7534   */\n      swap1\n      pop\n        /* \"#utility.yul\":7235:7540   */\n      swap3\n      swap2\n      pop\n      pop\n      jump\t// out\n\n    auxdata: 0xa26469706673582212208492efeba368844153516196bde4a1a7708a2dca20e4d1ee5770e187ea98ef6b64736f6c634300080e0033\n}\n",
				"bytecode": {
					"linkReferences": {},
					"object": "60806040526000805534801561001457600080fd5b506107e4806100246000396000f3fe608060405234801561001057600080fd5b50600436106100415760003560e01c80638b79543c14610046578063a005ec7a14610064578063ce12a6a514610098575b600080fd5b61004e6100b4565b60405161005b9190610373565b60405180910390f35b61007e600480360381019061007991906103ce565b6100ba565b60405161008f959493929190610494565b60405180910390f35b6100b260048036038101906100ad919061062a565b610200565b005b60005481565b60016020528060005260406000206000915090508060000154908060010154908060020180546100e9906106f8565b80601f0160208091040260200160405190810160405280929190818152602001828054610115906106f8565b80156101625780601f1061013757610100808354040283529160200191610162565b820191906000526020600020905b81548152906001019060200180831161014557829003601f168201915b505050505090806003018054610177906106f8565b80601f01602080910402602001604051908101604052809291908181526020018280546101a3906106f8565b80156101f05780601f106101c5576101008083540402835291602001916101f0565b820191906000526020600020905b8154815290600101906020018083116101d357829003601f168201915b5050505050908060040154905085565b60016000808282546102129190610758565b925050819055506040518060a001604052806000548152602001858152602001848152602001838152602001828152506001600080548152602001908152602001600020600082015181600001556020820151816001015560408201518160020190805190602001906102869291906102b7565b5060608201518160030190805190602001906102a39291906102b7565b506080820151816004015590505050505050565b8280546102c3906106f8565b90600052602060002090601f0160209004810192826102e5576000855561032c565b82601f106102fe57805160ff191683800117855561032c565b8280016001018555821561032c579182015b8281111561032b578251825591602001919060010190610310565b5b509050610339919061033d565b5090565b5b8082111561035657600081600090555060010161033e565b5090565b6000819050919050565b61036d8161035a565b82525050565b60006020820190506103886000830184610364565b92915050565b6000604051905090565b600080fd5b600080fd5b6103ab8161035a565b81146103b657600080fd5b50565b6000813590506103c8816103a2565b92915050565b6000602082840312156103e4576103e3610398565b5b60006103f2848285016103b9565b91505092915050565b600081519050919050565b600082825260208201905092915050565b60005b8381101561043557808201518184015260208101905061041a565b83811115610444576000848401525b50505050565b6000601f19601f8301169050919050565b6000610466826103fb565b6104708185610406565b9350610480818560208601610417565b6104898161044a565b840191505092915050565b600060a0820190506104a96000830188610364565b6104b66020830187610364565b81810360408301526104c8818661045b565b905081810360608301526104dc818561045b565b90506104eb6080830184610364565b9695505050505050565b600080fd5b600080fd5b7f4e487b7100000000000000000000000000000000000000000000000000000000600052604160045260246000fd5b6105378261044a565b810181811067ffffffffffffffff82111715610556576105556104ff565b5b80604052505050565b600061056961038e565b9050610575828261052e565b919050565b600067ffffffffffffffff821115610595576105946104ff565b5b61059e8261044a565b9050602081019050919050565b82818337600083830152505050565b60006105cd6105c88461057a565b61055f565b9050828152602081018484840111156105e9576105e86104fa565b5b6105f48482856105ab565b509392505050565b600082601f830112610611576106106104f5565b5b81356106218482602086016105ba565b91505092915050565b6000806000806080858703121561064457610643610398565b5b6000610652878288016103b9565b945050602085013567ffffffffffffffff8111156106735761067261039d565b5b61067f878288016105fc565b935050604085013567ffffffffffffffff8111156106a05761069f61039d565b5b6106ac878288016105fc565b92505060606106bd878288016103b9565b91505092959194509250565b7f4e487b7100000000000000000000000000000000000000000000000000000000600052602260045260246000fd5b6000600282049050600182168061071057607f821691505b602082108103610723576107226106c9565b5b50919050565b7f4e487b7100000000000000000000000000000000000000000000000000000000600052601160045260246000fd5b60006107638261035a565b915061076e8361035a565b9250827fffffffffffffffffffffffffffffffffffffffffffffffffffffffffffffffff038211156107a3576107a2610729565b5b82820190509291505056fea26469706673582212208492efeba368844153516196bde4a1a7708a2dca20e4d1ee5770e187ea98ef6b64736f6c634300080e0033",
					"opcodes": "PUSH1 0x80 PUSH1 0x40 MSTORE PUSH1 0x0 DUP1 SSTORE CALLVALUE DUP1 ISZERO PUSH2 0x14 JUMPI PUSH1 0x0 DUP1 REVERT JUMPDEST POP PUSH2 0x7E4 DUP1 PUSH2 0x24 PUSH1 0x0 CODECOPY PUSH1 0x0 RETURN INVALID PUSH1 0x80 PUSH1 0x40 MSTORE CALLVALUE DUP1 ISZERO PUSH2 0x10 JUMPI PUSH1 0x0 DUP1 REVERT JUMPDEST POP PUSH1 0x4 CALLDATASIZE LT PUSH2 0x41 JUMPI PUSH1 0x0 CALLDATALOAD PUSH1 0xE0 SHR DUP1 PUSH4 0x8B79543C EQ PUSH2 0x46 JUMPI DUP1 PUSH4 0xA005EC7A EQ PUSH2 0x64 JUMPI DUP1 PUSH4 0xCE12A6A5 EQ PUSH2 0x98 JUMPI JUMPDEST PUSH1 0x0 DUP1 REVERT JUMPDEST PUSH2 0x4E PUSH2 0xB4 JUMP JUMPDEST PUSH1 0x40 MLOAD PUSH2 0x5B SWAP2 SWAP1 PUSH2 0x373 JUMP JUMPDEST PUSH1 0x40 MLOAD DUP1 SWAP2 SUB SWAP1 RETURN JUMPDEST PUSH2 0x7E PUSH1 0x4 DUP1 CALLDATASIZE SUB DUP2 ADD SWAP1 PUSH2 0x79 SWAP2 SWAP1 PUSH2 0x3CE JUMP JUMPDEST PUSH2 0xBA JUMP JUMPDEST PUSH1 0x40 MLOAD PUSH2 0x8F SWAP6 SWAP5 SWAP4 SWAP3 SWAP2 SWAP1 PUSH2 0x494 JUMP JUMPDEST PUSH1 0x40 MLOAD DUP1 SWAP2 SUB SWAP1 RETURN JUMPDEST PUSH2 0xB2 PUSH1 0x4 DUP1 CALLDATASIZE SUB DUP2 ADD SWAP1 PUSH2 0xAD SWAP2 SWAP1 PUSH2 0x62A JUMP JUMPDEST PUSH2 0x200 JUMP JUMPDEST STOP JUMPDEST PUSH1 0x0 SLOAD DUP2 JUMP JUMPDEST PUSH1 0x1 PUSH1 0x20 MSTORE DUP1 PUSH1 0x0 MSTORE PUSH1 0x40 PUSH1 0x0 KECCAK256 PUSH1 0x0 SWAP2 POP SWAP1 POP DUP1 PUSH1 0x0 ADD SLOAD SWAP1 DUP1 PUSH1 0x1 ADD SLOAD SWAP1 DUP1 PUSH1 0x2 ADD DUP1 SLOAD PUSH2 0xE9 SWAP1 PUSH2 0x6F8 JUMP JUMPDEST DUP1 PUSH1 0x1F ADD PUSH1 0x20 DUP1 SWAP2 DIV MUL PUSH1 0x20 ADD PUSH1 0x40 MLOAD SWAP1 DUP2 ADD PUSH1 0x40 MSTORE DUP1 SWAP3 SWAP2 SWAP1 DUP2 DUP2 MSTORE PUSH1 0x20 ADD DUP3 DUP1 SLOAD PUSH2 0x115 SWAP1 PUSH2 0x6F8 JUMP JUMPDEST DUP1 ISZERO PUSH2 0x162 JUMPI DUP1 PUSH1 0x1F LT PUSH2 0x137 JUMPI PUSH2 0x100 DUP1 DUP4 SLOAD DIV MUL DUP4 MSTORE SWAP2 PUSH1 0x20 ADD SWAP2 PUSH2 0x162 JUMP JUMPDEST DUP3 ADD SWAP2 SWAP1 PUSH1 0x0 MSTORE PUSH1 0x20 PUSH1 0x0 KECCAK256 SWAP1 JUMPDEST DUP2 SLOAD DUP2 MSTORE SWAP1 PUSH1 0x1 ADD SWAP1 PUSH1 0x20 ADD DUP1 DUP4 GT PUSH2 0x145 JUMPI DUP3 SWAP1 SUB PUSH1 0x1F AND DUP3 ADD SWAP2 JUMPDEST POP POP POP POP POP SWAP1 DUP1 PUSH1 0x3 ADD DUP1 SLOAD PUSH2 0x177 SWAP1 PUSH2 0x6F8 JUMP JUMPDEST DUP1 PUSH1 0x1F ADD PUSH1 0x20 DUP1 SWAP2 DIV MUL PUSH1 0x20 ADD PUSH1 0x40 MLOAD SWAP1 DUP2 ADD PUSH1 0x40 MSTORE DUP1 SWAP3 SWAP2 SWAP1 DUP2 DUP2 MSTORE PUSH1 0x20 ADD DUP3 DUP1 SLOAD PUSH2 0x1A3 SWAP1 PUSH2 0x6F8 JUMP JUMPDEST DUP1 ISZERO PUSH2 0x1F0 JUMPI DUP1 PUSH1 0x1F LT PUSH2 0x1C5 JUMPI PUSH2 0x100 DUP1 DUP4 SLOAD DIV MUL DUP4 MSTORE SWAP2 PUSH1 0x20 ADD SWAP2 PUSH2 0x1F0 JUMP JUMPDEST DUP3 ADD SWAP2 SWAP1 PUSH1 0x0 MSTORE PUSH1 0x20 PUSH1 0x0 KECCAK256 SWAP1 JUMPDEST DUP2 SLOAD DUP2 MSTORE SWAP1 PUSH1 0x1 ADD SWAP1 PUSH1 0x20 ADD DUP1 DUP4 GT PUSH2 0x1D3 JUMPI DUP3 SWAP1 SUB PUSH1 0x1F AND DUP3 ADD SWAP2 JUMPDEST POP POP POP POP POP SWAP1 DUP1 PUSH1 0x4 ADD SLOAD SWAP1 POP DUP6 JUMP JUMPDEST PUSH1 0x1 PUSH1 0x0 DUP1 DUP3 DUP3 SLOAD PUSH2 0x212 SWAP2 SWAP1 PUSH2 0x758 JUMP JUMPDEST SWAP3 POP POP DUP2 SWAP1 SSTORE POP PUSH1 0x40 MLOAD DUP1 PUSH1 0xA0 ADD PUSH1 0x40 MSTORE DUP1 PUSH1 0x0 SLOAD DUP2 MSTORE PUSH1 0x20 ADD DUP6 DUP2 MSTORE PUSH1 0x20 ADD DUP5 DUP2 MSTORE PUSH1 0x20 ADD DUP4 DUP2 MSTORE PUSH1 0x20 ADD DUP3 DUP2 MSTORE POP PUSH1 0x1 PUSH1 0x0 DUP1 SLOAD DUP2 MSTORE PUSH1 0x20 ADD SWAP1 DUP2 MSTORE PUSH1 0x20 ADD PUSH1 0x0 KECCAK256 PUSH1 0x0 DUP3 ADD MLOAD DUP2 PUSH1 0x0 ADD SSTORE PUSH1 0x20 DUP3 ADD MLOAD DUP2 PUSH1 0x1 ADD SSTORE PUSH1 0x40 DUP3 ADD MLOAD DUP2 PUSH1 0x2 ADD SWAP1 DUP1 MLOAD SWAP1 PUSH1 0x20 ADD SWAP1 PUSH2 0x286 SWAP3 SWAP2 SWAP1 PUSH2 0x2B7 JUMP JUMPDEST POP PUSH1 0x60 DUP3 ADD MLOAD DUP2 PUSH1 0x3 ADD SWAP1 DUP1 MLOAD SWAP1 PUSH1 0x20 ADD SWAP1 PUSH2 0x2A3 SWAP3 SWAP2 SWAP1 PUSH2 0x2B7 JUMP JUMPDEST POP PUSH1 0x80 DUP3 ADD MLOAD DUP2 PUSH1 0x4 ADD SSTORE SWAP1 POP POP POP POP POP POP JUMP JUMPDEST DUP3 DUP1 SLOAD PUSH2 0x2C3 SWAP1 PUSH2 0x6F8 JUMP JUMPDEST SWAP1 PUSH1 0x0 MSTORE PUSH1 0x20 PUSH1 0x0 KECCAK256 SWAP1 PUSH1 0x1F ADD PUSH1 0x20 SWAP1 DIV DUP2 ADD SWAP3 DUP3 PUSH2 0x2E5 JUMPI PUSH1 0x0 DUP6 SSTORE PUSH2 0x32C JUMP JUMPDEST DUP3 PUSH1 0x1F LT PUSH2 0x2FE JUMPI DUP1 MLOAD PUSH1 0xFF NOT AND DUP4 DUP1 ADD OR DUP6 SSTORE PUSH2 0x32C JUMP JUMPDEST DUP3 DUP1 ADD PUSH1 0x1 ADD DUP6 SSTORE DUP3 ISZERO PUSH2 0x32C JUMPI SWAP2 DUP3 ADD JUMPDEST DUP3 DUP2 GT ISZERO PUSH2 0x32B JUMPI DUP3 MLOAD DUP3 SSTORE SWAP2 PUSH1 0x20 ADD SWAP2 SWAP1 PUSH1 0x1 ADD SWAP1 PUSH2 0x310 JUMP JUMPDEST JUMPDEST POP SWAP1 POP PUSH2 0x339 SWAP2 SWAP1 PUSH2 0x33D JUMP JUMPDEST POP SWAP1 JUMP JUMPDEST JUMPDEST DUP1 DUP3 GT ISZERO PUSH2 0x356 JUMPI PUSH1 0x0 DUP2 PUSH1 0x0 SWAP1 SSTORE POP PUSH1 0x1 ADD PUSH2 0x33E JUMP JUMPDEST POP SWAP1 JUMP JUMPDEST PUSH1 0x0 DUP2 SWAP1 POP SWAP2 SWAP1 POP JUMP JUMPDEST PUSH2 0x36D DUP2 PUSH2 0x35A JUMP JUMPDEST DUP3 MSTORE POP POP JUMP JUMPDEST PUSH1 0x0 PUSH1 0x20 DUP3 ADD SWAP1 POP PUSH2 0x388 PUSH1 0x0 DUP4 ADD DUP5 PUSH2 0x364 JUMP JUMPDEST SWAP3 SWAP2 POP POP JUMP JUMPDEST PUSH1 0x0 PUSH1 0x40 MLOAD SWAP1 POP SWAP1 JUMP JUMPDEST PUSH1 0x0 DUP1 REVERT JUMPDEST PUSH1 0x0 DUP1 REVERT JUMPDEST PUSH2 0x3AB DUP2 PUSH2 0x35A JUMP JUMPDEST DUP2 EQ PUSH2 0x3B6 JUMPI PUSH1 0x0 DUP1 REVERT JUMPDEST POP JUMP JUMPDEST PUSH1 0x0 DUP2 CALLDATALOAD SWAP1 POP PUSH2 0x3C8 DUP2 PUSH2 0x3A2 JUMP JUMPDEST SWAP3 SWAP2 POP POP JUMP JUMPDEST PUSH1 0x0 PUSH1 0x20 DUP3 DUP5 SUB SLT ISZERO PUSH2 0x3E4 JUMPI PUSH2 0x3E3 PUSH2 0x398 JUMP JUMPDEST JUMPDEST PUSH1 0x0 PUSH2 0x3F2 DUP5 DUP3 DUP6 ADD PUSH2 0x3B9 JUMP JUMPDEST SWAP2 POP POP SWAP3 SWAP2 POP POP JUMP JUMPDEST PUSH1 0x0 DUP2 MLOAD SWAP1 POP SWAP2 SWAP1 POP JUMP JUMPDEST PUSH1 0x0 DUP3 DUP3 MSTORE PUSH1 0x20 DUP3 ADD SWAP1 POP SWAP3 SWAP2 POP POP JUMP JUMPDEST PUSH1 0x0 JUMPDEST DUP4 DUP2 LT ISZERO PUSH2 0x435 JUMPI DUP1 DUP3 ADD MLOAD DUP2 DUP5 ADD MSTORE PUSH1 0x20 DUP2 ADD SWAP1 POP PUSH2 0x41A JUMP JUMPDEST DUP4 DUP2 GT ISZERO PUSH2 0x444 JUMPI PUSH1 0x0 DUP5 DUP5 ADD MSTORE JUMPDEST POP POP POP POP JUMP JUMPDEST PUSH1 0x0 PUSH1 0x1F NOT PUSH1 0x1F DUP4 ADD AND SWAP1 POP SWAP2 SWAP1 POP JUMP JUMPDEST PUSH1 0x0 PUSH2 0x466 DUP3 PUSH2 0x3FB JUMP JUMPDEST PUSH2 0x470 DUP2 DUP6 PUSH2 0x406 JUMP JUMPDEST SWAP4 POP PUSH2 0x480 DUP2 DUP6 PUSH1 0x20 DUP7 ADD PUSH2 0x417 JUMP JUMPDEST PUSH2 0x489 DUP2 PUSH2 0x44A JUMP JUMPDEST DUP5 ADD SWAP2 POP POP SWAP3 SWAP2 POP POP JUMP JUMPDEST PUSH1 0x0 PUSH1 0xA0 DUP3 ADD SWAP1 POP PUSH2 0x4A9 PUSH1 0x0 DUP4 ADD DUP9 PUSH2 0x364 JUMP JUMPDEST PUSH2 0x4B6 PUSH1 0x20 DUP4 ADD DUP8 PUSH2 0x364 JUMP JUMPDEST DUP2 DUP2 SUB PUSH1 0x40 DUP4 ADD MSTORE PUSH2 0x4C8 DUP2 DUP7 PUSH2 0x45B JUMP JUMPDEST SWAP1 POP DUP2 DUP2 SUB PUSH1 0x60 DUP4 ADD MSTORE PUSH2 0x4DC DUP2 DUP6 PUSH2 0x45B JUMP JUMPDEST SWAP1 POP PUSH2 0x4EB PUSH1 0x80 DUP4 ADD DUP5 PUSH2 0x364 JUMP JUMPDEST SWAP7 SWAP6 POP POP POP POP POP POP JUMP JUMPDEST PUSH1 0x0 DUP1 REVERT JUMPDEST PUSH1 0x0 DUP1 REVERT JUMPDEST PUSH32 0x4E487B7100000000000000000000000000000000000000000000000000000000 PUSH1 0x0 MSTORE PUSH1 0x41 PUSH1 0x4 MSTORE PUSH1 0x24 PUSH1 0x0 REVERT JUMPDEST PUSH2 0x537 DUP3 PUSH2 0x44A JUMP JUMPDEST DUP2 ADD DUP2 DUP2 LT PUSH8 0xFFFFFFFFFFFFFFFF DUP3 GT OR ISZERO PUSH2 0x556 JUMPI PUSH2 0x555 PUSH2 0x4FF JUMP JUMPDEST JUMPDEST DUP1 PUSH1 0x40 MSTORE POP POP POP JUMP JUMPDEST PUSH1 0x0 PUSH2 0x569 PUSH2 0x38E JUMP JUMPDEST SWAP1 POP PUSH2 0x575 DUP3 DUP3 PUSH2 0x52E JUMP JUMPDEST SWAP2 SWAP1 POP JUMP JUMPDEST PUSH1 0x0 PUSH8 0xFFFFFFFFFFFFFFFF DUP3 GT ISZERO PUSH2 0x595 JUMPI PUSH2 0x594 PUSH2 0x4FF JUMP JUMPDEST JUMPDEST PUSH2 0x59E DUP3 PUSH2 0x44A JUMP JUMPDEST SWAP1 POP PUSH1 0x20 DUP2 ADD SWAP1 POP SWAP2 SWAP1 POP JUMP JUMPDEST DUP3 DUP2 DUP4 CALLDATACOPY PUSH1 0x0 DUP4 DUP4 ADD MSTORE POP POP POP JUMP JUMPDEST PUSH1 0x0 PUSH2 0x5CD PUSH2 0x5C8 DUP5 PUSH2 0x57A JUMP JUMPDEST PUSH2 0x55F JUMP JUMPDEST SWAP1 POP DUP3 DUP2 MSTORE PUSH1 0x20 DUP2 ADD DUP5 DUP5 DUP5 ADD GT ISZERO PUSH2 0x5E9 JUMPI PUSH2 0x5E8 PUSH2 0x4FA JUMP JUMPDEST JUMPDEST PUSH2 0x5F4 DUP5 DUP3 DUP6 PUSH2 0x5AB JUMP JUMPDEST POP SWAP4 SWAP3 POP POP POP JUMP JUMPDEST PUSH1 0x0 DUP3 PUSH1 0x1F DUP4 ADD SLT PUSH2 0x611 JUMPI PUSH2 0x610 PUSH2 0x4F5 JUMP JUMPDEST JUMPDEST DUP2 CALLDATALOAD PUSH2 0x621 DUP5 DUP3 PUSH1 0x20 DUP7 ADD PUSH2 0x5BA JUMP JUMPDEST SWAP2 POP POP SWAP3 SWAP2 POP POP JUMP JUMPDEST PUSH1 0x0 DUP1 PUSH1 0x0 DUP1 PUSH1 0x80 DUP6 DUP8 SUB SLT ISZERO PUSH2 0x644 JUMPI PUSH2 0x643 PUSH2 0x398 JUMP JUMPDEST JUMPDEST PUSH1 0x0 PUSH2 0x652 DUP8 DUP3 DUP9 ADD PUSH2 0x3B9 JUMP JUMPDEST SWAP5 POP POP PUSH1 0x20 DUP6 ADD CALLDATALOAD PUSH8 0xFFFFFFFFFFFFFFFF DUP2 GT ISZERO PUSH2 0x673 JUMPI PUSH2 0x672 PUSH2 0x39D JUMP JUMPDEST JUMPDEST PUSH2 0x67F DUP8 DUP3 DUP9 ADD PUSH2 0x5FC JUMP JUMPDEST SWAP4 POP POP PUSH1 0x40 DUP6 ADD CALLDATALOAD PUSH8 0xFFFFFFFFFFFFFFFF DUP2 GT ISZERO PUSH2 0x6A0 JUMPI PUSH2 0x69F PUSH2 0x39D JUMP JUMPDEST JUMPDEST PUSH2 0x6AC DUP8 DUP3 DUP9 ADD PUSH2 0x5FC JUMP JUMPDEST SWAP3 POP POP PUSH1 0x60 PUSH2 0x6BD DUP8 DUP3 DUP9 ADD PUSH2 0x3B9 JUMP JUMPDEST SWAP2 POP POP SWAP3 SWAP6 SWAP2 SWAP5 POP SWAP3 POP JUMP JUMPDEST PUSH32 0x4E487B7100000000000000000000000000000000000000000000000000000000 PUSH1 0x0 MSTORE PUSH1 0x22 PUSH1 0x4 MSTORE PUSH1 0x24 PUSH1 0x0 REVERT JUMPDEST PUSH1 0x0 PUSH1 0x2 DUP3 DIV SWAP1 POP PUSH1 0x1 DUP3 AND DUP1 PUSH2 0x710 JUMPI PUSH1 0x7F DUP3 AND SWAP2 POP JUMPDEST PUSH1 0x20 DUP3 LT DUP2 SUB PUSH2 0x723 JUMPI PUSH2 0x722 PUSH2 0x6C9 JUMP JUMPDEST JUMPDEST POP SWAP2 SWAP1 POP JUMP JUMPDEST PUSH32 0x4E487B7100000000000000000000000000000000000000000000000000000000 PUSH1 0x0 MSTORE PUSH1 0x11 PUSH1 0x4 MSTORE PUSH1 0x24 PUSH1 0x0 REVERT JUMPDEST PUSH1 0x0 PUSH2 0x763 DUP3 PUSH2 0x35A JUMP JUMPDEST SWAP2 POP PUSH2 0x76E DUP4 PUSH2 0x35A JUMP JUMPDEST SWAP3 POP DUP3 PUSH32 0xFFFFFFFFFFFFFFFFFFFFFFFFFFFFFFFFFFFFFFFFFFFFFFFFFFFFFFFFFFFFFFFF SUB DUP3 GT ISZERO PUSH2 0x7A3 JUMPI PUSH2 0x7A2 PUSH2 0x729 JUMP JUMPDEST JUMPDEST DUP3 DUP3 ADD SWAP1 POP SWAP3 SWAP2 POP POP JUMP INVALID LOG2 PUSH5 0x6970667358 0x22 SLT KECCAK256 DUP5 SWAP3 0xEF 0xEB LOG3 PUSH9 0x844153516196BDE4A1 0xA7 PUSH17 0x8A2DCA20E4D1EE5770E187EA98EF6B6473 PUSH16 0x6C634300080E00330000000000000000 "
				},
				"gasEstimates": {
					"creation": {
						"codeDepositCost": "404000",
						"executionCost": "5449",
						"totalCost": "409449"
					},
					"external": {
						"addProject(uint256,string,string,uint256)": "infinite",
						"details(uint256)": "infinite",
						"projects()": "2407"
					}
				},
				"methodIdentifiers": {
					"addProject(uint256,string,string,uint256)": "ce12a6a5",
					"details(uint256)": "a005ec7a",
					"projects()": "8b79543c"
				}
			},
			"storageLayout": {
				"storage": [
					{
						"astId": 5,
						"contract": "contracts/mycontract.sol:startTrade",
						"label": "projects",
						"offset": 0,
						"slot": "0",
						"type": "t_uint256"
					},
					{
						"astId": 10,
						"contract": "contracts/mycontract.sol:startTrade",
						"label": "details",
						"offset": 0,
						"slot": "1",
						"type": "t_mapping(t_uint256,t_struct(Details)21_storage)"
					}
				],
				"types": {
					"t_mapping(t_uint256,t_struct(Details)21_storage)": {
						"encoding": "mapping",
						"key": "t_uint256",
						"label": "mapping(uint256 => struct startTrade.Details)",
						"numberOfBytes": "32",
						"value": "t_struct(Details)21_storage"
					},
					"t_string_storage": {
						"encoding": "bytes",
						"label": "string",
						"numberOfBytes": "32"
					},
					"t_struct(Details)21_storage": {
						"encoding": "inplace",
						"label": "struct startTrade.Details",
						"members": [
							{
								"astId": 12,
								"contract": "contracts/mycontract.sol:startTrade",
								"label": "project_id",
								"offset": 0,
								"slot": "0",
								"type": "t_uint256"
							},
							{
								"astId": 14,
								"contract": "contracts/mycontract.sol:startTrade",
								"label": "price",
								"offset": 0,
								"slot": "1",
								"type": "t_uint256"
							},
							{
								"astId": 16,
								"contract": "contracts/mycontract.sol:startTrade",
								"label": "location",
								"offset": 0,
								"slot": "2",
								"type": "t_string_storage"
							},
							{
								"astId": 18,
								"contract": "contracts/mycontract.sol:startTrade",
								"label": "prac",
								"offset": 0,
								"slot": "3",
								"type": "t_string_storage"
							},
							{
								"astId": 20,
								"contract": "contracts/mycontract.sol:startTrade",
								"label": "size",
								"offset": 0,
								"slot": "4",
								"type": "t_uint256"
							}
						],
						"numberOfBytes": "160"
					},
					"t_uint256": {
						"encoding": "inplace",
						"label": "uint256",
						"numberOfBytes": "32"
					}
				}
			},
			"userdoc": {
				"kind": "user",
				"methods": {},
				"version": 1
			}
		}
	}
}