{
	"contracts/mycontract.sol": {
		"startTrade": {
			"abi": [
				{
					"inputs": [],
					"stateMutability": "nonpayable",
					"type": "constructor"
				},
				{
					"inputs": [
						{
							"internalType": "string",
							"name": "price",
							"type": "string"
						},
						{
							"internalType": "string",
							"name": "location",
							"type": "string"
						},
						{
							"internalType": "string",
							"name": "prac",
							"type": "string"
						},
						{
							"internalType": "string",
							"name": "size",
							"type": "string"
						}
					],
					"name": "addDetails",
					"outputs": [],
					"stateMutability": "nonpayable",
					"type": "function"
				},
				{
					"inputs": [
						{
							"internalType": "uint256",
							"name": "",
							"type": "uint256"
						}
					],
					"name": "details",
					"outputs": [
						{
							"internalType": "string",
							"name": "price",
							"type": "string"
						},
						{
							"internalType": "string",
							"name": "location",
							"type": "string"
						},
						{
							"internalType": "string",
							"name": "prac",
							"type": "string"
						},
						{
							"internalType": "string",
							"name": "size",
							"type": "string"
						}
					],
					"stateMutability": "view",
					"type": "function"
				}
			],
			"devdoc": {
				"details": "Store & retrieve value in a variable",
				"kind": "dev",
				"methods": {},
				"title": "Storage",
				"version": 1
			},
			"evm": {
				"assembly": "    /* \"contracts/mycontract.sol\":142:541  contract startTrade {... */\n  mstore(0x40, 0x80)\n    /* \"contracts/mycontract.sol\":520:536  constructor() {} */\n  callvalue\n  dup1\n  iszero\n  tag_1\n  jumpi\n  0x00\n  dup1\n  revert\ntag_1:\n  pop\n    /* \"contracts/mycontract.sol\":142:541  contract startTrade {... */\n  dataSize(sub_0)\n  dup1\n  dataOffset(sub_0)\n  0x00\n  codecopy\n  0x00\n  return\nstop\n\nsub_0: assembly {\n        /* \"contracts/mycontract.sol\":142:541  contract startTrade {... */\n      mstore(0x40, 0x80)\n      callvalue\n      dup1\n      iszero\n      tag_1\n      jumpi\n      0x00\n      dup1\n      revert\n    tag_1:\n      pop\n      jumpi(tag_2, lt(calldatasize, 0x04))\n      shr(0xe0, calldataload(0x00))\n      dup1\n      0x29cc6222\n      eq\n      tag_3\n      jumpi\n      dup1\n      0xa005ec7a\n      eq\n      tag_4\n      jumpi\n    tag_2:\n      0x00\n      dup1\n      revert\n        /* \"contracts/mycontract.sol\":332:513  function addDetails(string memory price, string memory location, string memory prac, string memory size  ) public {... */\n    tag_3:\n      tag_5\n      0x04\n      dup1\n      calldatasize\n      sub\n      dup2\n      add\n      swap1\n      tag_6\n      swap2\n      swap1\n      tag_7\n      jump\t// in\n    tag_6:\n      tag_8\n      jump\t// in\n    tag_5:\n      stop\n        /* \"contracts/mycontract.sol\":169:193  Details[] public details */\n    tag_4:\n      tag_9\n      0x04\n      dup1\n      calldatasize\n      sub\n      dup2\n      add\n      swap1\n      tag_10\n      swap2\n      swap1\n      tag_11\n      jump\t// in\n    tag_10:\n      tag_12\n      jump\t// in\n    tag_9:\n      mload(0x40)\n      tag_13\n      swap5\n      swap4\n      swap3\n      swap2\n      swap1\n      tag_14\n      jump\t// in\n    tag_13:\n      mload(0x40)\n      dup1\n      swap2\n      sub\n      swap1\n      return\n        /* \"contracts/mycontract.sol\":332:513  function addDetails(string memory price, string memory location, string memory prac, string memory size  ) public {... */\n    tag_8:\n        /* \"contracts/mycontract.sol\":456:463  details */\n      0x00\n        /* \"contracts/mycontract.sol\":469:505  Details(price, location, prac, size) */\n      mload(0x40)\n      dup1\n      0x80\n      add\n      0x40\n      mstore\n      dup1\n        /* \"contracts/mycontract.sol\":477:482  price */\n      dup7\n        /* \"contracts/mycontract.sol\":469:505  Details(price, location, prac, size) */\n      dup2\n      mstore\n      0x20\n      add\n        /* \"contracts/mycontract.sol\":484:492  location */\n      dup6\n        /* \"contracts/mycontract.sol\":469:505  Details(price, location, prac, size) */\n      dup2\n      mstore\n      0x20\n      add\n        /* \"contracts/mycontract.sol\":494:498  prac */\n      dup5\n        /* \"contracts/mycontract.sol\":469:505  Details(price, location, prac, size) */\n      dup2\n      mstore\n      0x20\n      add\n        /* \"contracts/mycontract.sol\":500:504  size */\n      dup4\n        /* \"contracts/mycontract.sol\":469:505  Details(price, location, prac, size) */\n      dup2\n      mstore\n      pop\n        /* \"contracts/mycontract.sol\":456:506  details.push(Details(price, location, prac, size)) */\n      swap1\n      dup1\n      0x01\n      dup2\n      sload\n      add\n      dup1\n      dup3\n      sstore\n      dup1\n      swap2\n      pop\n      pop\n      0x01\n      swap1\n      sub\n      swap1\n      0x00\n      mstore\n      keccak256(0x00, 0x20)\n      swap1\n      0x04\n      mul\n      add\n      0x00\n      swap1\n      swap2\n      swap1\n      swap2\n      swap1\n      swap2\n      pop\n      0x00\n      dup3\n      add\n      mload\n      dup2\n      0x00\n      add\n      swap1\n      dup1\n      mload\n      swap1\n      0x20\n      add\n      swap1\n      tag_17\n      swap3\n      swap2\n      swap1\n      tag_18\n      jump\t// in\n    tag_17:\n      pop\n      0x20\n      dup3\n      add\n      mload\n      dup2\n      0x01\n      add\n      swap1\n      dup1\n      mload\n      swap1\n      0x20\n      add\n      swap1\n      tag_19\n      swap3\n      swap2\n      swap1\n      tag_18\n      jump\t// in\n    tag_19:\n      pop\n      0x40\n      dup3\n      add\n      mload\n      dup2\n      0x02\n      add\n      swap1\n      dup1\n      mload\n      swap1\n      0x20\n      add\n      swap1\n      tag_20\n      swap3\n      swap2\n      swap1\n      tag_18\n      jump\t// in\n    tag_20:\n      pop\n      0x60\n      dup3\n      add\n      mload\n      dup2\n      0x03\n      add\n      swap1\n      dup1\n      mload\n      swap1\n      0x20\n      add\n      swap1\n      tag_21\n      swap3\n      swap2\n      swap1\n      tag_18\n      jump\t// in\n    tag_21:\n      pop\n      pop\n      pop\n        /* \"contracts/mycontract.sol\":332:513  function addDetails(string memory price, string memory location, string memory prac, string memory size  ) public {... */\n      pop\n      pop\n      pop\n      pop\n      jump\t// out\n        /* \"contracts/mycontract.sol\":169:193  Details[] public details */\n    tag_12:\n      0x00\n      dup2\n      dup2\n      sload\n      dup2\n      lt\n      tag_22\n      jumpi\n      0x00\n      dup1\n      revert\n    tag_22:\n      swap1\n      0x00\n      mstore\n      keccak256(0x00, 0x20)\n      swap1\n      0x04\n      mul\n      add\n      0x00\n      swap2\n      pop\n      swap1\n      pop\n      dup1\n      0x00\n      add\n      dup1\n      sload\n      tag_24\n      swap1\n      tag_25\n      jump\t// in\n    tag_24:\n      dup1\n      0x1f\n      add\n      0x20\n      dup1\n      swap2\n      div\n      mul\n      0x20\n      add\n      mload(0x40)\n      swap1\n      dup2\n      add\n      0x40\n      mstore\n      dup1\n      swap3\n      swap2\n      swap1\n      dup2\n      dup2\n      mstore\n      0x20\n      add\n      dup3\n      dup1\n      sload\n      tag_26\n      swap1\n      tag_25\n      jump\t// in\n    tag_26:\n      dup1\n      iszero\n      tag_27\n      jumpi\n      dup1\n      0x1f\n      lt\n      tag_28\n      jumpi\n      0x0100\n      dup1\n      dup4\n      sload\n      div\n      mul\n      dup4\n      mstore\n      swap2\n      0x20\n      add\n      swap2\n      jump(tag_27)\n    tag_28:\n      dup3\n      add\n      swap2\n      swap1\n      0x00\n      mstore\n      keccak256(0x00, 0x20)\n      swap1\n    tag_29:\n      dup2\n      sload\n      dup2\n      mstore\n      swap1\n      0x01\n      add\n      swap1\n      0x20\n      add\n      dup1\n      dup4\n      gt\n      tag_29\n      jumpi\n      dup3\n      swap1\n      sub\n      0x1f\n      and\n      dup3\n      add\n      swap2\n    tag_27:\n      pop\n      pop\n      pop\n      pop\n      pop\n      swap1\n      dup1\n      0x01\n      add\n      dup1\n      sload\n      tag_30\n      swap1\n      tag_25\n      jump\t// in\n    tag_30:\n      dup1\n      0x1f\n      add\n      0x20\n      dup1\n      swap2\n      div\n      mul\n      0x20\n      add\n      mload(0x40)\n      swap1\n      dup2\n      add\n      0x40\n      mstore\n      dup1\n      swap3\n      swap2\n      swap1\n      dup2\n      dup2\n      mstore\n      0x20\n      add\n      dup3\n      dup1\n      sload\n      tag_31\n      swap1\n      tag_25\n      jump\t// in\n    tag_31:\n      dup1\n      iszero\n      tag_32\n      jumpi\n      dup1\n      0x1f\n      lt\n      tag_33\n      jumpi\n      0x0100\n      dup1\n      dup4\n      sload\n      div\n      mul\n      dup4\n      mstore\n      swap2\n      0x20\n      add\n      swap2\n      jump(tag_32)\n    tag_33:\n      dup3\n      add\n      swap2\n      swap1\n      0x00\n      mstore\n      keccak256(0x00, 0x20)\n      swap1\n    tag_34:\n      dup2\n      sload\n      dup2\n      mstore\n      swap1\n      0x01\n      add\n      swap1\n      0x20\n      add\n      dup1\n      dup4\n      gt\n      tag_34\n      jumpi\n      dup3\n      swap1\n      sub\n      0x1f\n      and\n      dup3\n      add\n      swap2\n    tag_32:\n      pop\n      pop\n      pop\n      pop\n      pop\n      swap1\n      dup1\n      0x02\n      add\n      dup1\n      sload\n      tag_35\n      swap1\n      tag_25\n      jump\t// in\n    tag_35:\n      dup1\n      0x1f\n      add\n      0x20\n      dup1\n      swap2\n      div\n      mul\n      0x20\n      add\n      mload(0x40)\n      swap1\n      dup2\n      add\n      0x40\n      mstore\n      dup1\n      swap3\n      swap2\n      swap1\n      dup2\n      dup2\n      mstore\n      0x20\n      add\n      dup3\n      dup1\n      sload\n      tag_36\n      swap1\n      tag_25\n      jump\t// in\n    tag_36:\n      dup1\n      iszero\n      tag_37\n      jumpi\n      dup1\n      0x1f\n      lt\n      tag_38\n      jumpi\n      0x0100\n      dup1\n      dup4\n      sload\n      div\n      mul\n      dup4\n      mstore\n      swap2\n      0x20\n      add\n      swap2\n      jump(tag_37)\n    tag_38:\n      dup3\n      add\n      swap2\n      swap1\n      0x00\n      mstore\n      keccak256(0x00, 0x20)\n      swap1\n    tag_39:\n      dup2\n      sload\n      dup2\n      mstore\n      swap1\n      0x01\n      add\n      swap1\n      0x20\n      add\n      dup1\n      dup4\n      gt\n      tag_39\n      jumpi\n      dup3\n      swap1\n      sub\n      0x1f\n      and\n      dup3\n      add\n      swap2\n    tag_37:\n      pop\n      pop\n      pop\n      pop\n      pop\n      swap1\n      dup1\n      0x03\n      add\n      dup1\n      sload\n      tag_40\n      swap1\n      tag_25\n      jump\t// in\n    tag_40:\n      dup1\n      0x1f\n      add\n      0x20\n      dup1\n      swap2\n      div\n      mul\n      0x20\n      add\n      mload(0x40)\n      swap1\n      dup2\n      add\n      0x40\n      mstore\n      dup1\n      swap3\n      swap2\n      swap1\n      dup2\n      dup2\n      mstore\n      0x20\n      add\n      dup3\n      dup1\n      sload\n      tag_41\n      swap1\n      tag_25\n      jump\t// in\n    tag_41:\n      dup1\n      iszero\n      tag_42\n      jumpi\n      dup1\n      0x1f\n      lt\n      tag_43\n      jumpi\n      0x0100\n      dup1\n      dup4\n      sload\n      div\n      mul\n      dup4\n      mstore\n      swap2\n      0x20\n      add\n      swap2\n      jump(tag_42)\n    tag_43:\n      dup3\n      add\n      swap2\n      swap1\n      0x00\n      mstore\n      keccak256(0x00, 0x20)\n      swap1\n    tag_44:\n      dup2\n      sload\n      dup2\n      mstore\n      swap1\n      0x01\n      add\n      swap1\n      0x20\n      add\n      dup1\n      dup4\n      gt\n      tag_44\n      jumpi\n      dup3\n      swap1\n      sub\n      0x1f\n      and\n      dup3\n      add\n      swap2\n    tag_42:\n      pop\n      pop\n      pop\n      pop\n      pop\n      swap1\n      pop\n      dup5\n      jump\t// out\n    tag_18:\n      dup3\n      dup1\n      sload\n      tag_45\n      swap1\n      tag_25\n      jump\t// in\n    tag_45:\n      swap1\n      0x00\n      mstore\n      keccak256(0x00, 0x20)\n      swap1\n      0x1f\n      add\n      0x20\n      swap1\n      div\n      dup2\n      add\n      swap3\n      dup3\n      tag_47\n      jumpi\n      0x00\n      dup6\n      sstore\n      jump(tag_46)\n    tag_47:\n      dup3\n      0x1f\n      lt\n      tag_48\n      jumpi\n      dup1\n      mload\n      not(0xff)\n      and\n      dup4\n      dup1\n      add\n      or\n      dup6\n      sstore\n      jump(tag_46)\n    tag_48:\n      dup3\n      dup1\n      add\n      0x01\n      add\n      dup6\n      sstore\n      dup3\n      iszero\n      tag_46\n      jumpi\n      swap2\n      dup3\n      add\n    tag_49:\n      dup3\n      dup2\n      gt\n      iszero\n      tag_50\n      jumpi\n      dup3\n      mload\n      dup3\n      sstore\n      swap2\n      0x20\n      add\n      swap2\n      swap1\n      0x01\n      add\n      swap1\n      jump(tag_49)\n    tag_50:\n    tag_46:\n      pop\n      swap1\n      pop\n      tag_51\n      swap2\n      swap1\n      tag_52\n      jump\t// in\n    tag_51:\n      pop\n      swap1\n      jump\t// out\n    tag_52:\n    tag_53:\n      dup1\n      dup3\n      gt\n      iszero\n      tag_54\n      jumpi\n      0x00\n      dup2\n      0x00\n      swap1\n      sstore\n      pop\n      0x01\n      add\n      jump(tag_53)\n    tag_54:\n      pop\n      swap1\n      jump\t// out\n        /* \"#utility.yul\":7:82   */\n    tag_55:\n        /* \"#utility.yul\":40:46   */\n      0x00\n        /* \"#utility.yul\":73:75   */\n      0x40\n        /* \"#utility.yul\":67:76   */\n      mload\n        /* \"#utility.yul\":57:76   */\n      swap1\n      pop\n        /* \"#utility.yul\":7:82   */\n      swap1\n      jump\t// out\n        /* \"#utility.yul\":88:205   */\n    tag_56:\n        /* \"#utility.yul\":197:198   */\n      0x00\n        /* \"#utility.yul\":194:195   */\n      dup1\n        /* \"#utility.yul\":187:199   */\n      revert\n        /* \"#utility.yul\":211:328   */\n    tag_57:\n        /* \"#utility.yul\":320:321   */\n      0x00\n        /* \"#utility.yul\":317:318   */\n      dup1\n        /* \"#utility.yul\":310:322   */\n      revert\n        /* \"#utility.yul\":334:451   */\n    tag_58:\n        /* \"#utility.yul\":443:444   */\n      0x00\n        /* \"#utility.yul\":440:441   */\n      dup1\n        /* \"#utility.yul\":433:445   */\n      revert\n        /* \"#utility.yul\":457:574   */\n    tag_59:\n        /* \"#utility.yul\":566:567   */\n      0x00\n        /* \"#utility.yul\":563:564   */\n      dup1\n        /* \"#utility.yul\":556:568   */\n      revert\n        /* \"#utility.yul\":580:682   */\n    tag_60:\n        /* \"#utility.yul\":621:627   */\n      0x00\n        /* \"#utility.yul\":672:674   */\n      0x1f\n        /* \"#utility.yul\":668:675   */\n      not\n        /* \"#utility.yul\":663:665   */\n      0x1f\n        /* \"#utility.yul\":656:661   */\n      dup4\n        /* \"#utility.yul\":652:666   */\n      add\n        /* \"#utility.yul\":648:676   */\n      and\n        /* \"#utility.yul\":638:676   */\n      swap1\n      pop\n        /* \"#utility.yul\":580:682   */\n      swap2\n      swap1\n      pop\n      jump\t// out\n        /* \"#utility.yul\":688:868   */\n    tag_61:\n        /* \"#utility.yul\":736:813   */\n      0x4e487b7100000000000000000000000000000000000000000000000000000000\n        /* \"#utility.yul\":733:734   */\n      0x00\n        /* \"#utility.yul\":726:814   */\n      mstore\n        /* \"#utility.yul\":833:837   */\n      0x41\n        /* \"#utility.yul\":830:831   */\n      0x04\n        /* \"#utility.yul\":823:838   */\n      mstore\n        /* \"#utility.yul\":857:861   */\n      0x24\n        /* \"#utility.yul\":854:855   */\n      0x00\n        /* \"#utility.yul\":847:862   */\n      revert\n        /* \"#utility.yul\":874:1155   */\n    tag_62:\n        /* \"#utility.yul\":957:984   */\n      tag_85\n        /* \"#utility.yul\":979:983   */\n      dup3\n        /* \"#utility.yul\":957:984   */\n      tag_60\n      jump\t// in\n    tag_85:\n        /* \"#utility.yul\":949:955   */\n      dup2\n        /* \"#utility.yul\":945:985   */\n      add\n        /* \"#utility.yul\":1087:1093   */\n      dup2\n        /* \"#utility.yul\":1075:1085   */\n      dup2\n        /* \"#utility.yul\":1072:1094   */\n      lt\n        /* \"#utility.yul\":1051:1069   */\n      0xffffffffffffffff\n        /* \"#utility.yul\":1039:1049   */\n      dup3\n        /* \"#utility.yul\":1036:1070   */\n      gt\n        /* \"#utility.yul\":1033:1095   */\n      or\n        /* \"#utility.yul\":1030:1118   */\n      iszero\n      tag_86\n      jumpi\n        /* \"#utility.yul\":1098:1116   */\n      tag_87\n      tag_61\n      jump\t// in\n    tag_87:\n        /* \"#utility.yul\":1030:1118   */\n    tag_86:\n        /* \"#utility.yul\":1138:1148   */\n      dup1\n        /* \"#utility.yul\":1134:1136   */\n      0x40\n        /* \"#utility.yul\":1127:1149   */\n      mstore\n        /* \"#utility.yul\":917:1155   */\n      pop\n        /* \"#utility.yul\":874:1155   */\n      pop\n      pop\n      jump\t// out\n        /* \"#utility.yul\":1161:1290   */\n    tag_63:\n        /* \"#utility.yul\":1195:1201   */\n      0x00\n        /* \"#utility.yul\":1222:1242   */\n      tag_89\n      tag_55\n      jump\t// in\n    tag_89:\n        /* \"#utility.yul\":1212:1242   */\n      swap1\n      pop\n        /* \"#utility.yul\":1251:1284   */\n      tag_90\n        /* \"#utility.yul\":1279:1283   */\n      dup3\n        /* \"#utility.yul\":1271:1277   */\n      dup3\n        /* \"#utility.yul\":1251:1284   */\n      tag_62\n      jump\t// in\n    tag_90:\n        /* \"#utility.yul\":1161:1290   */\n      swap2\n      swap1\n      pop\n      jump\t// out\n        /* \"#utility.yul\":1296:1604   */\n    tag_64:\n        /* \"#utility.yul\":1358:1362   */\n      0x00\n        /* \"#utility.yul\":1448:1466   */\n      0xffffffffffffffff\n        /* \"#utility.yul\":1440:1446   */\n      dup3\n        /* \"#utility.yul\":1437:1467   */\n      gt\n        /* \"#utility.yul\":1434:1490   */\n      iszero\n      tag_92\n      jumpi\n        /* \"#utility.yul\":1470:1488   */\n      tag_93\n      tag_61\n      jump\t// in\n    tag_93:\n        /* \"#utility.yul\":1434:1490   */\n    tag_92:\n        /* \"#utility.yul\":1508:1537   */\n      tag_94\n        /* \"#utility.yul\":1530:1536   */\n      dup3\n        /* \"#utility.yul\":1508:1537   */\n      tag_60\n      jump\t// in\n    tag_94:\n        /* \"#utility.yul\":1500:1537   */\n      swap1\n      pop\n        /* \"#utility.yul\":1592:1596   */\n      0x20\n        /* \"#utility.yul\":1586:1590   */\n      dup2\n        /* \"#utility.yul\":1582:1597   */\n      add\n        /* \"#utility.yul\":1574:1597   */\n      swap1\n      pop\n        /* \"#utility.yul\":1296:1604   */\n      swap2\n      swap1\n      pop\n      jump\t// out\n        /* \"#utility.yul\":1610:1764   */\n    tag_65:\n        /* \"#utility.yul\":1694:1700   */\n      dup3\n        /* \"#utility.yul\":1689:1692   */\n      dup2\n        /* \"#utility.yul\":1684:1687   */\n      dup4\n        /* \"#utility.yul\":1671:1701   */\n      calldatacopy\n        /* \"#utility.yul\":1756:1757   */\n      0x00\n        /* \"#utility.yul\":1747:1753   */\n      dup4\n        /* \"#utility.yul\":1742:1745   */\n      dup4\n        /* \"#utility.yul\":1738:1754   */\n      add\n        /* \"#utility.yul\":1731:1758   */\n      mstore\n        /* \"#utility.yul\":1610:1764   */\n      pop\n      pop\n      pop\n      jump\t// out\n        /* \"#utility.yul\":1770:2182   */\n    tag_66:\n        /* \"#utility.yul\":1848:1853   */\n      0x00\n        /* \"#utility.yul\":1873:1939   */\n      tag_97\n        /* \"#utility.yul\":1889:1938   */\n      tag_98\n        /* \"#utility.yul\":1931:1937   */\n      dup5\n        /* \"#utility.yul\":1889:1938   */\n      tag_64\n      jump\t// in\n    tag_98:\n        /* \"#utility.yul\":1873:1939   */\n      tag_63\n      jump\t// in\n    tag_97:\n        /* \"#utility.yul\":1864:1939   */\n      swap1\n      pop\n        /* \"#utility.yul\":1962:1968   */\n      dup3\n        /* \"#utility.yul\":1955:1960   */\n      dup2\n        /* \"#utility.yul\":1948:1969   */\n      mstore\n        /* \"#utility.yul\":2000:2004   */\n      0x20\n        /* \"#utility.yul\":1993:1998   */\n      dup2\n        /* \"#utility.yul\":1989:2005   */\n      add\n        /* \"#utility.yul\":2038:2041   */\n      dup5\n        /* \"#utility.yul\":2029:2035   */\n      dup5\n        /* \"#utility.yul\":2024:2027   */\n      dup5\n        /* \"#utility.yul\":2020:2036   */\n      add\n        /* \"#utility.yul\":2017:2042   */\n      gt\n        /* \"#utility.yul\":2014:2126   */\n      iszero\n      tag_99\n      jumpi\n        /* \"#utility.yul\":2045:2124   */\n      tag_100\n      tag_59\n      jump\t// in\n    tag_100:\n        /* \"#utility.yul\":2014:2126   */\n    tag_99:\n        /* \"#utility.yul\":2135:2176   */\n      tag_101\n        /* \"#utility.yul\":2169:2175   */\n      dup5\n        /* \"#utility.yul\":2164:2167   */\n      dup3\n        /* \"#utility.yul\":2159:2162   */\n      dup6\n        /* \"#utility.yul\":2135:2176   */\n      tag_65\n      jump\t// in\n    tag_101:\n        /* \"#utility.yul\":1854:2182   */\n      pop\n        /* \"#utility.yul\":1770:2182   */\n      swap4\n      swap3\n      pop\n      pop\n      pop\n      jump\t// out\n        /* \"#utility.yul\":2202:2542   */\n    tag_67:\n        /* \"#utility.yul\":2258:2263   */\n      0x00\n        /* \"#utility.yul\":2307:2310   */\n      dup3\n        /* \"#utility.yul\":2300:2304   */\n      0x1f\n        /* \"#utility.yul\":2292:2298   */\n      dup4\n        /* \"#utility.yul\":2288:2305   */\n      add\n        /* \"#utility.yul\":2284:2311   */\n      slt\n        /* \"#utility.yul\":2274:2396   */\n      tag_103\n      jumpi\n        /* \"#utility.yul\":2315:2394   */\n      tag_104\n      tag_58\n      jump\t// in\n    tag_104:\n        /* \"#utility.yul\":2274:2396   */\n    tag_103:\n        /* \"#utility.yul\":2432:2438   */\n      dup2\n        /* \"#utility.yul\":2419:2439   */\n      calldataload\n        /* \"#utility.yul\":2457:2536   */\n      tag_105\n        /* \"#utility.yul\":2532:2535   */\n      dup5\n        /* \"#utility.yul\":2524:2530   */\n      dup3\n        /* \"#utility.yul\":2517:2521   */\n      0x20\n        /* \"#utility.yul\":2509:2515   */\n      dup7\n        /* \"#utility.yul\":2505:2522   */\n      add\n        /* \"#utility.yul\":2457:2536   */\n      tag_66\n      jump\t// in\n    tag_105:\n        /* \"#utility.yul\":2448:2536   */\n      swap2\n      pop\n        /* \"#utility.yul\":2264:2542   */\n      pop\n        /* \"#utility.yul\":2202:2542   */\n      swap3\n      swap2\n      pop\n      pop\n      jump\t// out\n        /* \"#utility.yul\":2548:4033   */\n    tag_7:\n        /* \"#utility.yul\":2674:2680   */\n      0x00\n        /* \"#utility.yul\":2682:2688   */\n      dup1\n        /* \"#utility.yul\":2690:2696   */\n      0x00\n        /* \"#utility.yul\":2698:2704   */\n      dup1\n        /* \"#utility.yul\":2747:2750   */\n      0x80\n        /* \"#utility.yul\":2735:2744   */\n      dup6\n        /* \"#utility.yul\":2726:2733   */\n      dup8\n        /* \"#utility.yul\":2722:2745   */\n      sub\n        /* \"#utility.yul\":2718:2751   */\n      slt\n        /* \"#utility.yul\":2715:2835   */\n      iszero\n      tag_107\n      jumpi\n        /* \"#utility.yul\":2754:2833   */\n      tag_108\n      tag_56\n      jump\t// in\n    tag_108:\n        /* \"#utility.yul\":2715:2835   */\n    tag_107:\n        /* \"#utility.yul\":2902:2903   */\n      0x00\n        /* \"#utility.yul\":2891:2900   */\n      dup6\n        /* \"#utility.yul\":2887:2904   */\n      add\n        /* \"#utility.yul\":2874:2905   */\n      calldataload\n        /* \"#utility.yul\":2932:2950   */\n      0xffffffffffffffff\n        /* \"#utility.yul\":2924:2930   */\n      dup2\n        /* \"#utility.yul\":2921:2951   */\n      gt\n        /* \"#utility.yul\":2918:3035   */\n      iszero\n      tag_109\n      jumpi\n        /* \"#utility.yul\":2954:3033   */\n      tag_110\n      tag_57\n      jump\t// in\n    tag_110:\n        /* \"#utility.yul\":2918:3035   */\n    tag_109:\n        /* \"#utility.yul\":3059:3122   */\n      tag_111\n        /* \"#utility.yul\":3114:3121   */\n      dup8\n        /* \"#utility.yul\":3105:3111   */\n      dup3\n        /* \"#utility.yul\":3094:3103   */\n      dup9\n        /* \"#utility.yul\":3090:3112   */\n      add\n        /* \"#utility.yul\":3059:3122   */\n      tag_67\n      jump\t// in\n    tag_111:\n        /* \"#utility.yul\":3049:3122   */\n      swap5\n      pop\n        /* \"#utility.yul\":2845:3132   */\n      pop\n        /* \"#utility.yul\":3199:3201   */\n      0x20\n        /* \"#utility.yul\":3188:3197   */\n      dup6\n        /* \"#utility.yul\":3184:3202   */\n      add\n        /* \"#utility.yul\":3171:3203   */\n      calldataload\n        /* \"#utility.yul\":3230:3248   */\n      0xffffffffffffffff\n        /* \"#utility.yul\":3222:3228   */\n      dup2\n        /* \"#utility.yul\":3219:3249   */\n      gt\n        /* \"#utility.yul\":3216:3333   */\n      iszero\n      tag_112\n      jumpi\n        /* \"#utility.yul\":3252:3331   */\n      tag_113\n      tag_57\n      jump\t// in\n    tag_113:\n        /* \"#utility.yul\":3216:3333   */\n    tag_112:\n        /* \"#utility.yul\":3357:3420   */\n      tag_114\n        /* \"#utility.yul\":3412:3419   */\n      dup8\n        /* \"#utility.yul\":3403:3409   */\n      dup3\n        /* \"#utility.yul\":3392:3401   */\n      dup9\n        /* \"#utility.yul\":3388:3410   */\n      add\n        /* \"#utility.yul\":3357:3420   */\n      tag_67\n      jump\t// in\n    tag_114:\n        /* \"#utility.yul\":3347:3420   */\n      swap4\n      pop\n        /* \"#utility.yul\":3142:3430   */\n      pop\n        /* \"#utility.yul\":3497:3499   */\n      0x40\n        /* \"#utility.yul\":3486:3495   */\n      dup6\n        /* \"#utility.yul\":3482:3500   */\n      add\n        /* \"#utility.yul\":3469:3501   */\n      calldataload\n        /* \"#utility.yul\":3528:3546   */\n      0xffffffffffffffff\n        /* \"#utility.yul\":3520:3526   */\n      dup2\n        /* \"#utility.yul\":3517:3547   */\n      gt\n        /* \"#utility.yul\":3514:3631   */\n      iszero\n      tag_115\n      jumpi\n        /* \"#utility.yul\":3550:3629   */\n      tag_116\n      tag_57\n      jump\t// in\n    tag_116:\n        /* \"#utility.yul\":3514:3631   */\n    tag_115:\n        /* \"#utility.yul\":3655:3718   */\n      tag_117\n        /* \"#utility.yul\":3710:3717   */\n      dup8\n        /* \"#utility.yul\":3701:3707   */\n      dup3\n        /* \"#utility.yul\":3690:3699   */\n      dup9\n        /* \"#utility.yul\":3686:3708   */\n      add\n        /* \"#utility.yul\":3655:3718   */\n      tag_67\n      jump\t// in\n    tag_117:\n        /* \"#utility.yul\":3645:3718   */\n      swap3\n      pop\n        /* \"#utility.yul\":3440:3728   */\n      pop\n        /* \"#utility.yul\":3795:3797   */\n      0x60\n        /* \"#utility.yul\":3784:3793   */\n      dup6\n        /* \"#utility.yul\":3780:3798   */\n      add\n        /* \"#utility.yul\":3767:3799   */\n      calldataload\n        /* \"#utility.yul\":3826:3844   */\n      0xffffffffffffffff\n        /* \"#utility.yul\":3818:3824   */\n      dup2\n        /* \"#utility.yul\":3815:3845   */\n      gt\n        /* \"#utility.yul\":3812:3929   */\n      iszero\n      tag_118\n      jumpi\n        /* \"#utility.yul\":3848:3927   */\n      tag_119\n      tag_57\n      jump\t// in\n    tag_119:\n        /* \"#utility.yul\":3812:3929   */\n    tag_118:\n        /* \"#utility.yul\":3953:4016   */\n      tag_120\n        /* \"#utility.yul\":4008:4015   */\n      dup8\n        /* \"#utility.yul\":3999:4005   */\n      dup3\n        /* \"#utility.yul\":3988:3997   */\n      dup9\n        /* \"#utility.yul\":3984:4006   */\n      add\n        /* \"#utility.yul\":3953:4016   */\n      tag_67\n      jump\t// in\n    tag_120:\n        /* \"#utility.yul\":3943:4016   */\n      swap2\n      pop\n        /* \"#utility.yul\":3738:4026   */\n      pop\n        /* \"#utility.yul\":2548:4033   */\n      swap3\n      swap6\n      swap2\n      swap5\n      pop\n      swap3\n      pop\n      jump\t// out\n        /* \"#utility.yul\":4039:4116   */\n    tag_68:\n        /* \"#utility.yul\":4076:4083   */\n      0x00\n        /* \"#utility.yul\":4105:4110   */\n      dup2\n        /* \"#utility.yul\":4094:4110   */\n      swap1\n      pop\n        /* \"#utility.yul\":4039:4116   */\n      swap2\n      swap1\n      pop\n      jump\t// out\n        /* \"#utility.yul\":4122:4244   */\n    tag_69:\n        /* \"#utility.yul\":4195:4219   */\n      tag_123\n        /* \"#utility.yul\":4213:4218   */\n      dup2\n        /* \"#utility.yul\":4195:4219   */\n      tag_68\n      jump\t// in\n    tag_123:\n        /* \"#utility.yul\":4188:4193   */\n      dup2\n        /* \"#utility.yul\":4185:4220   */\n      eq\n        /* \"#utility.yul\":4175:4238   */\n      tag_124\n      jumpi\n        /* \"#utility.yul\":4234:4235   */\n      0x00\n        /* \"#utility.yul\":4231:4232   */\n      dup1\n        /* \"#utility.yul\":4224:4236   */\n      revert\n        /* \"#utility.yul\":4175:4238   */\n    tag_124:\n        /* \"#utility.yul\":4122:4244   */\n      pop\n      jump\t// out\n        /* \"#utility.yul\":4250:4389   */\n    tag_70:\n        /* \"#utility.yul\":4296:4301   */\n      0x00\n        /* \"#utility.yul\":4334:4340   */\n      dup2\n        /* \"#utility.yul\":4321:4341   */\n      calldataload\n        /* \"#utility.yul\":4312:4341   */\n      swap1\n      pop\n        /* \"#utility.yul\":4350:4383   */\n      tag_126\n        /* \"#utility.yul\":4377:4382   */\n      dup2\n        /* \"#utility.yul\":4350:4383   */\n      tag_69\n      jump\t// in\n    tag_126:\n        /* \"#utility.yul\":4250:4389   */\n      swap3\n      swap2\n      pop\n      pop\n      jump\t// out\n        /* \"#utility.yul\":4395:4724   */\n    tag_11:\n        /* \"#utility.yul\":4454:4460   */\n      0x00\n        /* \"#utility.yul\":4503:4505   */\n      0x20\n        /* \"#utility.yul\":4491:4500   */\n      dup3\n        /* \"#utility.yul\":4482:4489   */\n      dup5\n        /* \"#utility.yul\":4478:4501   */\n      sub\n        /* \"#utility.yul\":4474:4506   */\n      slt\n        /* \"#utility.yul\":4471:4590   */\n      iszero\n      tag_128\n      jumpi\n        /* \"#utility.yul\":4509:4588   */\n      tag_129\n      tag_56\n      jump\t// in\n    tag_129:\n        /* \"#utility.yul\":4471:4590   */\n    tag_128:\n        /* \"#utility.yul\":4629:4630   */\n      0x00\n        /* \"#utility.yul\":4654:4707   */\n      tag_130\n        /* \"#utility.yul\":4699:4706   */\n      dup5\n        /* \"#utility.yul\":4690:4696   */\n      dup3\n        /* \"#utility.yul\":4679:4688   */\n      dup6\n        /* \"#utility.yul\":4675:4697   */\n      add\n        /* \"#utility.yul\":4654:4707   */\n      tag_70\n      jump\t// in\n    tag_130:\n        /* \"#utility.yul\":4644:4707   */\n      swap2\n      pop\n        /* \"#utility.yul\":4600:4717   */\n      pop\n        /* \"#utility.yul\":4395:4724   */\n      swap3\n      swap2\n      pop\n      pop\n      jump\t// out\n        /* \"#utility.yul\":4730:4829   */\n    tag_71:\n        /* \"#utility.yul\":4782:4788   */\n      0x00\n        /* \"#utility.yul\":4816:4821   */\n      dup2\n        /* \"#utility.yul\":4810:4822   */\n      mload\n        /* \"#utility.yul\":4800:4822   */\n      swap1\n      pop\n        /* \"#utility.yul\":4730:4829   */\n      swap2\n      swap1\n      pop\n      jump\t// out\n        /* \"#utility.yul\":4835:5004   */\n    tag_72:\n        /* \"#utility.yul\":4919:4930   */\n      0x00\n        /* \"#utility.yul\":4953:4959   */\n      dup3\n        /* \"#utility.yul\":4948:4951   */\n      dup3\n        /* \"#utility.yul\":4941:4960   */\n      mstore\n        /* \"#utility.yul\":4993:4997   */\n      0x20\n        /* \"#utility.yul\":4988:4991   */\n      dup3\n        /* \"#utility.yul\":4984:4998   */\n      add\n        /* \"#utility.yul\":4969:4998   */\n      swap1\n      pop\n        /* \"#utility.yul\":4835:5004   */\n      swap3\n      swap2\n      pop\n      pop\n      jump\t// out\n        /* \"#utility.yul\":5010:5317   */\n    tag_73:\n        /* \"#utility.yul\":5078:5079   */\n      0x00\n        /* \"#utility.yul\":5088:5201   */\n    tag_134:\n        /* \"#utility.yul\":5102:5108   */\n      dup4\n        /* \"#utility.yul\":5099:5100   */\n      dup2\n        /* \"#utility.yul\":5096:5109   */\n      lt\n        /* \"#utility.yul\":5088:5201   */\n      iszero\n      tag_136\n      jumpi\n        /* \"#utility.yul\":5187:5188   */\n      dup1\n        /* \"#utility.yul\":5182:5185   */\n      dup3\n        /* \"#utility.yul\":5178:5189   */\n      add\n        /* \"#utility.yul\":5172:5190   */\n      mload\n        /* \"#utility.yul\":5168:5169   */\n      dup2\n        /* \"#utility.yul\":5163:5166   */\n      dup5\n        /* \"#utility.yul\":5159:5170   */\n      add\n        /* \"#utility.yul\":5152:5191   */\n      mstore\n        /* \"#utility.yul\":5124:5126   */\n      0x20\n        /* \"#utility.yul\":5121:5122   */\n      dup2\n        /* \"#utility.yul\":5117:5127   */\n      add\n        /* \"#utility.yul\":5112:5127   */\n      swap1\n      pop\n        /* \"#utility.yul\":5088:5201   */\n      jump(tag_134)\n    tag_136:\n        /* \"#utility.yul\":5219:5225   */\n      dup4\n        /* \"#utility.yul\":5216:5217   */\n      dup2\n        /* \"#utility.yul\":5213:5226   */\n      gt\n        /* \"#utility.yul\":5210:5311   */\n      iszero\n      tag_137\n      jumpi\n        /* \"#utility.yul\":5299:5300   */\n      0x00\n        /* \"#utility.yul\":5290:5296   */\n      dup5\n        /* \"#utility.yul\":5285:5288   */\n      dup5\n        /* \"#utility.yul\":5281:5297   */\n      add\n        /* \"#utility.yul\":5274:5301   */\n      mstore\n        /* \"#utility.yul\":5210:5311   */\n    tag_137:\n        /* \"#utility.yul\":5059:5317   */\n      pop\n        /* \"#utility.yul\":5010:5317   */\n      pop\n      pop\n      pop\n      jump\t// out\n        /* \"#utility.yul\":5323:5687   */\n    tag_74:\n        /* \"#utility.yul\":5411:5414   */\n      0x00\n        /* \"#utility.yul\":5439:5478   */\n      tag_139\n        /* \"#utility.yul\":5472:5477   */\n      dup3\n        /* \"#utility.yul\":5439:5478   */\n      tag_71\n      jump\t// in\n    tag_139:\n        /* \"#utility.yul\":5494:5565   */\n      tag_140\n        /* \"#utility.yul\":5558:5564   */\n      dup2\n        /* \"#utility.yul\":5553:5556   */\n      dup6\n        /* \"#utility.yul\":5494:5565   */\n      tag_72\n      jump\t// in\n    tag_140:\n        /* \"#utility.yul\":5487:5565   */\n      swap4\n      pop\n        /* \"#utility.yul\":5574:5626   */\n      tag_141\n        /* \"#utility.yul\":5619:5625   */\n      dup2\n        /* \"#utility.yul\":5614:5617   */\n      dup6\n        /* \"#utility.yul\":5607:5611   */\n      0x20\n        /* \"#utility.yul\":5600:5605   */\n      dup7\n        /* \"#utility.yul\":5596:5612   */\n      add\n        /* \"#utility.yul\":5574:5626   */\n      tag_73\n      jump\t// in\n    tag_141:\n        /* \"#utility.yul\":5651:5680   */\n      tag_142\n        /* \"#utility.yul\":5673:5679   */\n      dup2\n        /* \"#utility.yul\":5651:5680   */\n      tag_60\n      jump\t// in\n    tag_142:\n        /* \"#utility.yul\":5646:5649   */\n      dup5\n        /* \"#utility.yul\":5642:5681   */\n      add\n        /* \"#utility.yul\":5635:5681   */\n      swap2\n      pop\n        /* \"#utility.yul\":5415:5687   */\n      pop\n        /* \"#utility.yul\":5323:5687   */\n      swap3\n      swap2\n      pop\n      pop\n      jump\t// out\n        /* \"#utility.yul\":5693:6610   */\n    tag_14:\n        /* \"#utility.yul\":5950:5954   */\n      0x00\n        /* \"#utility.yul\":5988:5991   */\n      0x80\n        /* \"#utility.yul\":5977:5986   */\n      dup3\n        /* \"#utility.yul\":5973:5992   */\n      add\n        /* \"#utility.yul\":5965:5992   */\n      swap1\n      pop\n        /* \"#utility.yul\":6038:6047   */\n      dup2\n        /* \"#utility.yul\":6032:6036   */\n      dup2\n        /* \"#utility.yul\":6028:6048   */\n      sub\n        /* \"#utility.yul\":6024:6025   */\n      0x00\n        /* \"#utility.yul\":6013:6022   */\n      dup4\n        /* \"#utility.yul\":6009:6026   */\n      add\n        /* \"#utility.yul\":6002:6049   */\n      mstore\n        /* \"#utility.yul\":6066:6144   */\n      tag_144\n        /* \"#utility.yul\":6139:6143   */\n      dup2\n        /* \"#utility.yul\":6130:6136   */\n      dup8\n        /* \"#utility.yul\":6066:6144   */\n      tag_74\n      jump\t// in\n    tag_144:\n        /* \"#utility.yul\":6058:6144   */\n      swap1\n      pop\n        /* \"#utility.yul\":6191:6200   */\n      dup2\n        /* \"#utility.yul\":6185:6189   */\n      dup2\n        /* \"#utility.yul\":6181:6201   */\n      sub\n        /* \"#utility.yul\":6176:6178   */\n      0x20\n        /* \"#utility.yul\":6165:6174   */\n      dup4\n        /* \"#utility.yul\":6161:6179   */\n      add\n        /* \"#utility.yul\":6154:6202   */\n      mstore\n        /* \"#utility.yul\":6219:6297   */\n      tag_145\n        /* \"#utility.yul\":6292:6296   */\n      dup2\n        /* \"#utility.yul\":6283:6289   */\n      dup7\n        /* \"#utility.yul\":6219:6297   */\n      tag_74\n      jump\t// in\n    tag_145:\n        /* \"#utility.yul\":6211:6297   */\n      swap1\n      pop\n        /* \"#utility.yul\":6344:6353   */\n      dup2\n        /* \"#utility.yul\":6338:6342   */\n      dup2\n        /* \"#utility.yul\":6334:6354   */\n      sub\n        /* \"#utility.yul\":6329:6331   */\n      0x40\n        /* \"#utility.yul\":6318:6327   */\n      dup4\n        /* \"#utility.yul\":6314:6332   */\n      add\n        /* \"#utility.yul\":6307:6355   */\n      mstore\n        /* \"#utility.yul\":6372:6450   */\n      tag_146\n        /* \"#utility.yul\":6445:6449   */\n      dup2\n        /* \"#utility.yul\":6436:6442   */\n      dup6\n        /* \"#utility.yul\":6372:6450   */\n      tag_74\n      jump\t// in\n    tag_146:\n        /* \"#utility.yul\":6364:6450   */\n      swap1\n      pop\n        /* \"#utility.yul\":6497:6506   */\n      dup2\n        /* \"#utility.yul\":6491:6495   */\n      dup2\n        /* \"#utility.yul\":6487:6507   */\n      sub\n        /* \"#utility.yul\":6482:6484   */\n      0x60\n        /* \"#utility.yul\":6471:6480   */\n      dup4\n        /* \"#utility.yul\":6467:6485   */\n      add\n        /* \"#utility.yul\":6460:6508   */\n      mstore\n        /* \"#utility.yul\":6525:6603   */\n      tag_147\n        /* \"#utility.yul\":6598:6602   */\n      dup2\n        /* \"#utility.yul\":6589:6595   */\n      dup5\n        /* \"#utility.yul\":6525:6603   */\n      tag_74\n      jump\t// in\n    tag_147:\n        /* \"#utility.yul\":6517:6603   */\n      swap1\n      pop\n        /* \"#utility.yul\":5693:6610   */\n      swap6\n      swap5\n      pop\n      pop\n      pop\n      pop\n      pop\n      jump\t// out\n        /* \"#utility.yul\":6616:6796   */\n    tag_75:\n        /* \"#utility.yul\":6664:6741   */\n      0x4e487b7100000000000000000000000000000000000000000000000000000000\n        /* \"#utility.yul\":6661:6662   */\n      0x00\n        /* \"#utility.yul\":6654:6742   */\n      mstore\n        /* \"#utility.yul\":6761:6765   */\n      0x22\n        /* \"#utility.yul\":6758:6759   */\n      0x04\n        /* \"#utility.yul\":6751:6766   */\n      mstore\n        /* \"#utility.yul\":6785:6789   */\n      0x24\n        /* \"#utility.yul\":6782:6783   */\n      0x00\n        /* \"#utility.yul\":6775:6790   */\n      revert\n        /* \"#utility.yul\":6802:7122   */\n    tag_25:\n        /* \"#utility.yul\":6846:6852   */\n      0x00\n        /* \"#utility.yul\":6883:6884   */\n      0x02\n        /* \"#utility.yul\":6877:6881   */\n      dup3\n        /* \"#utility.yul\":6873:6885   */\n      div\n        /* \"#utility.yul\":6863:6885   */\n      swap1\n      pop\n        /* \"#utility.yul\":6930:6931   */\n      0x01\n        /* \"#utility.yul\":6924:6928   */\n      dup3\n        /* \"#utility.yul\":6920:6932   */\n      and\n        /* \"#utility.yul\":6951:6969   */\n      dup1\n        /* \"#utility.yul\":6941:7022   */\n      tag_150\n      jumpi\n        /* \"#utility.yul\":7007:7011   */\n      0x7f\n        /* \"#utility.yul\":6999:7005   */\n      dup3\n        /* \"#utility.yul\":6995:7012   */\n      and\n        /* \"#utility.yul\":6985:7012   */\n      swap2\n      pop\n        /* \"#utility.yul\":6941:7022   */\n    tag_150:\n        /* \"#utility.yul\":7069:7071   */\n      0x20\n        /* \"#utility.yul\":7061:7067   */\n      dup3\n        /* \"#utility.yul\":7058:7072   */\n      lt\n        /* \"#utility.yul\":7038:7056   */\n      dup2\n        /* \"#utility.yul\":7035:7073   */\n      sub\n        /* \"#utility.yul\":7032:7116   */\n      tag_151\n      jumpi\n        /* \"#utility.yul\":7088:7106   */\n      tag_152\n      tag_75\n      jump\t// in\n    tag_152:\n        /* \"#utility.yul\":7032:7116   */\n    tag_151:\n        /* \"#utility.yul\":6853:7122   */\n      pop\n        /* \"#utility.yul\":6802:7122   */\n      swap2\n      swap1\n      pop\n      jump\t// out\n\n    auxdata: 0xa264697066735822122062184d2d6cb1c0644272b4ac20c68742444d471ae7cc0ad72f518e70f93d906364736f6c634300080e0033\n}\n",
				"bytecode": {
					"linkReferences": {},
					"object": "608060405234801561001057600080fd5b50610868806100206000396000f3fe608060405234801561001057600080fd5b50600436106100365760003560e01c806329cc62221461003b578063a005ec7a14610057575b600080fd5b610055600480360381019061005091906105af565b61008a565b005b610071600480360381019061006c91906106bc565b610152565b6040516100819493929190610771565b60405180910390f35b6000604051806080016040528086815260200185815260200184815260200183815250908060018154018082558091505060019003906000526020600020906004020160009091909190915060008201518160000190805190602001906100f29291906103b2565b50602082015181600101908051906020019061010f9291906103b2565b50604082015181600201908051906020019061012c9291906103b2565b5060608201518160030190805190602001906101499291906103b2565b50505050505050565b6000818154811061016257600080fd5b906000526020600020906004020160009150905080600001805461018590610801565b80601f01602080910402602001604051908101604052809291908181526020018280546101b190610801565b80156101fe5780601f106101d3576101008083540402835291602001916101fe565b820191906000526020600020905b8154815290600101906020018083116101e157829003601f168201915b50505050509080600101805461021390610801565b80601f016020809104026020016040519081016040528092919081815260200182805461023f90610801565b801561028c5780601f106102615761010080835404028352916020019161028c565b820191906000526020600020905b81548152906001019060200180831161026f57829003601f168201915b5050505050908060020180546102a190610801565b80601f01602080910402602001604051908101604052809291908181526020018280546102cd90610801565b801561031a5780601f106102ef5761010080835404028352916020019161031a565b820191906000526020600020905b8154815290600101906020018083116102fd57829003601f168201915b50505050509080600301805461032f90610801565b80601f016020809104026020016040519081016040528092919081815260200182805461035b90610801565b80156103a85780601f1061037d576101008083540402835291602001916103a8565b820191906000526020600020905b81548152906001019060200180831161038b57829003601f168201915b5050505050905084565b8280546103be90610801565b90600052602060002090601f0160209004810192826103e05760008555610427565b82601f106103f957805160ff1916838001178555610427565b82800160010185558215610427579182015b8281111561042657825182559160200191906001019061040b565b5b5090506104349190610438565b5090565b5b80821115610451576000816000905550600101610439565b5090565b6000604051905090565b600080fd5b600080fd5b600080fd5b600080fd5b6000601f19601f8301169050919050565b7f4e487b7100000000000000000000000000000000000000000000000000000000600052604160045260246000fd5b6104bc82610473565b810181811067ffffffffffffffff821117156104db576104da610484565b5b80604052505050565b60006104ee610455565b90506104fa82826104b3565b919050565b600067ffffffffffffffff82111561051a57610519610484565b5b61052382610473565b9050602081019050919050565b82818337600083830152505050565b600061055261054d846104ff565b6104e4565b90508281526020810184848401111561056e5761056d61046e565b5b610579848285610530565b509392505050565b600082601f83011261059657610595610469565b5b81356105a684826020860161053f565b91505092915050565b600080600080608085870312156105c9576105c861045f565b5b600085013567ffffffffffffffff8111156105e7576105e6610464565b5b6105f387828801610581565b945050602085013567ffffffffffffffff81111561061457610613610464565b5b61062087828801610581565b935050604085013567ffffffffffffffff81111561064157610640610464565b5b61064d87828801610581565b925050606085013567ffffffffffffffff81111561066e5761066d610464565b5b61067a87828801610581565b91505092959194509250565b6000819050919050565b61069981610686565b81146106a457600080fd5b50565b6000813590506106b681610690565b92915050565b6000602082840312156106d2576106d161045f565b5b60006106e0848285016106a7565b91505092915050565b600081519050919050565b600082825260208201905092915050565b60005b83811015610723578082015181840152602081019050610708565b83811115610732576000848401525b50505050565b6000610743826106e9565b61074d81856106f4565b935061075d818560208601610705565b61076681610473565b840191505092915050565b6000608082019050818103600083015261078b8187610738565b9050818103602083015261079f8186610738565b905081810360408301526107b38185610738565b905081810360608301526107c78184610738565b905095945050505050565b7f4e487b7100000000000000000000000000000000000000000000000000000000600052602260045260246000fd5b6000600282049050600182168061081957607f821691505b60208210810361082c5761082b6107d2565b5b5091905056fea264697066735822122062184d2d6cb1c0644272b4ac20c68742444d471ae7cc0ad72f518e70f93d906364736f6c634300080e0033",
					"opcodes": "PUSH1 0x80 PUSH1 0x40 MSTORE CALLVALUE DUP1 ISZERO PUSH2 0x10 JUMPI PUSH1 0x0 DUP1 REVERT JUMPDEST POP PUSH2 0x868 DUP1 PUSH2 0x20 PUSH1 0x0 CODECOPY PUSH1 0x0 RETURN INVALID PUSH1 0x80 PUSH1 0x40 MSTORE CALLVALUE DUP1 ISZERO PUSH2 0x10 JUMPI PUSH1 0x0 DUP1 REVERT JUMPDEST POP PUSH1 0x4 CALLDATASIZE LT PUSH2 0x36 JUMPI PUSH1 0x0 CALLDATALOAD PUSH1 0xE0 SHR DUP1 PUSH4 0x29CC6222 EQ PUSH2 0x3B JUMPI DUP1 PUSH4 0xA005EC7A EQ PUSH2 0x57 JUMPI JUMPDEST PUSH1 0x0 DUP1 REVERT JUMPDEST PUSH2 0x55 PUSH1 0x4 DUP1 CALLDATASIZE SUB DUP2 ADD SWAP1 PUSH2 0x50 SWAP2 SWAP1 PUSH2 0x5AF JUMP JUMPDEST PUSH2 0x8A JUMP JUMPDEST STOP JUMPDEST PUSH2 0x71 PUSH1 0x4 DUP1 CALLDATASIZE SUB DUP2 ADD SWAP1 PUSH2 0x6C SWAP2 SWAP1 PUSH2 0x6BC JUMP JUMPDEST PUSH2 0x152 JUMP JUMPDEST PUSH1 0x40 MLOAD PUSH2 0x81 SWAP5 SWAP4 SWAP3 SWAP2 SWAP1 PUSH2 0x771 JUMP JUMPDEST PUSH1 0x40 MLOAD DUP1 SWAP2 SUB SWAP1 RETURN JUMPDEST PUSH1 0x0 PUSH1 0x40 MLOAD DUP1 PUSH1 0x80 ADD PUSH1 0x40 MSTORE DUP1 DUP7 DUP2 MSTORE PUSH1 0x20 ADD DUP6 DUP2 MSTORE PUSH1 0x20 ADD DUP5 DUP2 MSTORE PUSH1 0x20 ADD DUP4 DUP2 MSTORE POP SWAP1 DUP1 PUSH1 0x1 DUP2 SLOAD ADD DUP1 DUP3 SSTORE DUP1 SWAP2 POP POP PUSH1 0x1 SWAP1 SUB SWAP1 PUSH1 0x0 MSTORE PUSH1 0x20 PUSH1 0x0 KECCAK256 SWAP1 PUSH1 0x4 MUL ADD PUSH1 0x0 SWAP1 SWAP2 SWAP1 SWAP2 SWAP1 SWAP2 POP PUSH1 0x0 DUP3 ADD MLOAD DUP2 PUSH1 0x0 ADD SWAP1 DUP1 MLOAD SWAP1 PUSH1 0x20 ADD SWAP1 PUSH2 0xF2 SWAP3 SWAP2 SWAP1 PUSH2 0x3B2 JUMP JUMPDEST POP PUSH1 0x20 DUP3 ADD MLOAD DUP2 PUSH1 0x1 ADD SWAP1 DUP1 MLOAD SWAP1 PUSH1 0x20 ADD SWAP1 PUSH2 0x10F SWAP3 SWAP2 SWAP1 PUSH2 0x3B2 JUMP JUMPDEST POP PUSH1 0x40 DUP3 ADD MLOAD DUP2 PUSH1 0x2 ADD SWAP1 DUP1 MLOAD SWAP1 PUSH1 0x20 ADD SWAP1 PUSH2 0x12C SWAP3 SWAP2 SWAP1 PUSH2 0x3B2 JUMP JUMPDEST POP PUSH1 0x60 DUP3 ADD MLOAD DUP2 PUSH1 0x3 ADD SWAP1 DUP1 MLOAD SWAP1 PUSH1 0x20 ADD SWAP1 PUSH2 0x149 SWAP3 SWAP2 SWAP1 PUSH2 0x3B2 JUMP JUMPDEST POP POP POP POP POP POP POP JUMP JUMPDEST PUSH1 0x0 DUP2 DUP2 SLOAD DUP2 LT PUSH2 0x162 JUMPI PUSH1 0x0 DUP1 REVERT JUMPDEST SWAP1 PUSH1 0x0 MSTORE PUSH1 0x20 PUSH1 0x0 KECCAK256 SWAP1 PUSH1 0x4 MUL ADD PUSH1 0x0 SWAP2 POP SWAP1 POP DUP1 PUSH1 0x0 ADD DUP1 SLOAD PUSH2 0x185 SWAP1 PUSH2 0x801 JUMP JUMPDEST DUP1 PUSH1 0x1F ADD PUSH1 0x20 DUP1 SWAP2 DIV MUL PUSH1 0x20 ADD PUSH1 0x40 MLOAD SWAP1 DUP2 ADD PUSH1 0x40 MSTORE DUP1 SWAP3 SWAP2 SWAP1 DUP2 DUP2 MSTORE PUSH1 0x20 ADD DUP3 DUP1 SLOAD PUSH2 0x1B1 SWAP1 PUSH2 0x801 JUMP JUMPDEST DUP1 ISZERO PUSH2 0x1FE JUMPI DUP1 PUSH1 0x1F LT PUSH2 0x1D3 JUMPI PUSH2 0x100 DUP1 DUP4 SLOAD DIV MUL DUP4 MSTORE SWAP2 PUSH1 0x20 ADD SWAP2 PUSH2 0x1FE JUMP JUMPDEST DUP3 ADD SWAP2 SWAP1 PUSH1 0x0 MSTORE PUSH1 0x20 PUSH1 0x0 KECCAK256 SWAP1 JUMPDEST DUP2 SLOAD DUP2 MSTORE SWAP1 PUSH1 0x1 ADD SWAP1 PUSH1 0x20 ADD DUP1 DUP4 GT PUSH2 0x1E1 JUMPI DUP3 SWAP1 SUB PUSH1 0x1F AND DUP3 ADD SWAP2 JUMPDEST POP POP POP POP POP SWAP1 DUP1 PUSH1 0x1 ADD DUP1 SLOAD PUSH2 0x213 SWAP1 PUSH2 0x801 JUMP JUMPDEST DUP1 PUSH1 0x1F ADD PUSH1 0x20 DUP1 SWAP2 DIV MUL PUSH1 0x20 ADD PUSH1 0x40 MLOAD SWAP1 DUP2 ADD PUSH1 0x40 MSTORE DUP1 SWAP3 SWAP2 SWAP1 DUP2 DUP2 MSTORE PUSH1 0x20 ADD DUP3 DUP1 SLOAD PUSH2 0x23F SWAP1 PUSH2 0x801 JUMP JUMPDEST DUP1 ISZERO PUSH2 0x28C JUMPI DUP1 PUSH1 0x1F LT PUSH2 0x261 JUMPI PUSH2 0x100 DUP1 DUP4 SLOAD DIV MUL DUP4 MSTORE SWAP2 PUSH1 0x20 ADD SWAP2 PUSH2 0x28C JUMP JUMPDEST DUP3 ADD SWAP2 SWAP1 PUSH1 0x0 MSTORE PUSH1 0x20 PUSH1 0x0 KECCAK256 SWAP1 JUMPDEST DUP2 SLOAD DUP2 MSTORE SWAP1 PUSH1 0x1 ADD SWAP1 PUSH1 0x20 ADD DUP1 DUP4 GT PUSH2 0x26F JUMPI DUP3 SWAP1 SUB PUSH1 0x1F AND DUP3 ADD SWAP2 JUMPDEST POP POP POP POP POP SWAP1 DUP1 PUSH1 0x2 ADD DUP1 SLOAD PUSH2 0x2A1 SWAP1 PUSH2 0x801 JUMP JUMPDEST DUP1 PUSH1 0x1F ADD PUSH1 0x20 DUP1 SWAP2 DIV MUL PUSH1 0x20 ADD PUSH1 0x40 MLOAD SWAP1 DUP2 ADD PUSH1 0x40 MSTORE DUP1 SWAP3 SWAP2 SWAP1 DUP2 DUP2 MSTORE PUSH1 0x20 ADD DUP3 DUP1 SLOAD PUSH2 0x2CD SWAP1 PUSH2 0x801 JUMP JUMPDEST DUP1 ISZERO PUSH2 0x31A JUMPI DUP1 PUSH1 0x1F LT PUSH2 0x2EF JUMPI PUSH2 0x100 DUP1 DUP4 SLOAD DIV MUL DUP4 MSTORE SWAP2 PUSH1 0x20 ADD SWAP2 PUSH2 0x31A JUMP JUMPDEST DUP3 ADD SWAP2 SWAP1 PUSH1 0x0 MSTORE PUSH1 0x20 PUSH1 0x0 KECCAK256 SWAP1 JUMPDEST DUP2 SLOAD DUP2 MSTORE SWAP1 PUSH1 0x1 ADD SWAP1 PUSH1 0x20 ADD DUP1 DUP4 GT PUSH2 0x2FD JUMPI DUP3 SWAP1 SUB PUSH1 0x1F AND DUP3 ADD SWAP2 JUMPDEST POP POP POP POP POP SWAP1 DUP1 PUSH1 0x3 ADD DUP1 SLOAD PUSH2 0x32F SWAP1 PUSH2 0x801 JUMP JUMPDEST DUP1 PUSH1 0x1F ADD PUSH1 0x20 DUP1 SWAP2 DIV MUL PUSH1 0x20 ADD PUSH1 0x40 MLOAD SWAP1 DUP2 ADD PUSH1 0x40 MSTORE DUP1 SWAP3 SWAP2 SWAP1 DUP2 DUP2 MSTORE PUSH1 0x20 ADD DUP3 DUP1 SLOAD PUSH2 0x35B SWAP1 PUSH2 0x801 JUMP JUMPDEST DUP1 ISZERO PUSH2 0x3A8 JUMPI DUP1 PUSH1 0x1F LT PUSH2 0x37D JUMPI PUSH2 0x100 DUP1 DUP4 SLOAD DIV MUL DUP4 MSTORE SWAP2 PUSH1 0x20 ADD SWAP2 PUSH2 0x3A8 JUMP JUMPDEST DUP3 ADD SWAP2 SWAP1 PUSH1 0x0 MSTORE PUSH1 0x20 PUSH1 0x0 KECCAK256 SWAP1 JUMPDEST DUP2 SLOAD DUP2 MSTORE SWAP1 PUSH1 0x1 ADD SWAP1 PUSH1 0x20 ADD DUP1 DUP4 GT PUSH2 0x38B JUMPI DUP3 SWAP1 SUB PUSH1 0x1F AND DUP3 ADD SWAP2 JUMPDEST POP POP POP POP POP SWAP1 POP DUP5 JUMP JUMPDEST DUP3 DUP1 SLOAD PUSH2 0x3BE SWAP1 PUSH2 0x801 JUMP JUMPDEST SWAP1 PUSH1 0x0 MSTORE PUSH1 0x20 PUSH1 0x0 KECCAK256 SWAP1 PUSH1 0x1F ADD PUSH1 0x20 SWAP1 DIV DUP2 ADD SWAP3 DUP3 PUSH2 0x3E0 JUMPI PUSH1 0x0 DUP6 SSTORE PUSH2 0x427 JUMP JUMPDEST DUP3 PUSH1 0x1F LT PUSH2 0x3F9 JUMPI DUP1 MLOAD PUSH1 0xFF NOT AND DUP4 DUP1 ADD OR DUP6 SSTORE PUSH2 0x427 JUMP JUMPDEST DUP3 DUP1 ADD PUSH1 0x1 ADD DUP6 SSTORE DUP3 ISZERO PUSH2 0x427 JUMPI SWAP2 DUP3 ADD JUMPDEST DUP3 DUP2 GT ISZERO PUSH2 0x426 JUMPI DUP3 MLOAD DUP3 SSTORE SWAP2 PUSH1 0x20 ADD SWAP2 SWAP1 PUSH1 0x1 ADD SWAP1 PUSH2 0x40B JUMP JUMPDEST JUMPDEST POP SWAP1 POP PUSH2 0x434 SWAP2 SWAP1 PUSH2 0x438 JUMP JUMPDEST POP SWAP1 JUMP JUMPDEST JUMPDEST DUP1 DUP3 GT ISZERO PUSH2 0x451 JUMPI PUSH1 0x0 DUP2 PUSH1 0x0 SWAP1 SSTORE POP PUSH1 0x1 ADD PUSH2 0x439 JUMP JUMPDEST POP SWAP1 JUMP JUMPDEST PUSH1 0x0 PUSH1 0x40 MLOAD SWAP1 POP SWAP1 JUMP JUMPDEST PUSH1 0x0 DUP1 REVERT JUMPDEST PUSH1 0x0 DUP1 REVERT JUMPDEST PUSH1 0x0 DUP1 REVERT JUMPDEST PUSH1 0x0 DUP1 REVERT JUMPDEST PUSH1 0x0 PUSH1 0x1F NOT PUSH1 0x1F DUP4 ADD AND SWAP1 POP SWAP2 SWAP1 POP JUMP JUMPDEST PUSH32 0x4E487B7100000000000000000000000000000000000000000000000000000000 PUSH1 0x0 MSTORE PUSH1 0x41 PUSH1 0x4 MSTORE PUSH1 0x24 PUSH1 0x0 REVERT JUMPDEST PUSH2 0x4BC DUP3 PUSH2 0x473 JUMP JUMPDEST DUP2 ADD DUP2 DUP2 LT PUSH8 0xFFFFFFFFFFFFFFFF DUP3 GT OR ISZERO PUSH2 0x4DB JUMPI PUSH2 0x4DA PUSH2 0x484 JUMP JUMPDEST JUMPDEST DUP1 PUSH1 0x40 MSTORE POP POP POP JUMP JUMPDEST PUSH1 0x0 PUSH2 0x4EE PUSH2 0x455 JUMP JUMPDEST SWAP1 POP PUSH2 0x4FA DUP3 DUP3 PUSH2 0x4B3 JUMP JUMPDEST SWAP2 SWAP1 POP JUMP JUMPDEST PUSH1 0x0 PUSH8 0xFFFFFFFFFFFFFFFF DUP3 GT ISZERO PUSH2 0x51A JUMPI PUSH2 0x519 PUSH2 0x484 JUMP JUMPDEST JUMPDEST PUSH2 0x523 DUP3 PUSH2 0x473 JUMP JUMPDEST SWAP1 POP PUSH1 0x20 DUP2 ADD SWAP1 POP SWAP2 SWAP1 POP JUMP JUMPDEST DUP3 DUP2 DUP4 CALLDATACOPY PUSH1 0x0 DUP4 DUP4 ADD MSTORE POP POP POP JUMP JUMPDEST PUSH1 0x0 PUSH2 0x552 PUSH2 0x54D DUP5 PUSH2 0x4FF JUMP JUMPDEST PUSH2 0x4E4 JUMP JUMPDEST SWAP1 POP DUP3 DUP2 MSTORE PUSH1 0x20 DUP2 ADD DUP5 DUP5 DUP5 ADD GT ISZERO PUSH2 0x56E JUMPI PUSH2 0x56D PUSH2 0x46E JUMP JUMPDEST JUMPDEST PUSH2 0x579 DUP5 DUP3 DUP6 PUSH2 0x530 JUMP JUMPDEST POP SWAP4 SWAP3 POP POP POP JUMP JUMPDEST PUSH1 0x0 DUP3 PUSH1 0x1F DUP4 ADD SLT PUSH2 0x596 JUMPI PUSH2 0x595 PUSH2 0x469 JUMP JUMPDEST JUMPDEST DUP2 CALLDATALOAD PUSH2 0x5A6 DUP5 DUP3 PUSH1 0x20 DUP7 ADD PUSH2 0x53F JUMP JUMPDEST SWAP2 POP POP SWAP3 SWAP2 POP POP JUMP JUMPDEST PUSH1 0x0 DUP1 PUSH1 0x0 DUP1 PUSH1 0x80 DUP6 DUP8 SUB SLT ISZERO PUSH2 0x5C9 JUMPI PUSH2 0x5C8 PUSH2 0x45F JUMP JUMPDEST JUMPDEST PUSH1 0x0 DUP6 ADD CALLDATALOAD PUSH8 0xFFFFFFFFFFFFFFFF DUP2 GT ISZERO PUSH2 0x5E7 JUMPI PUSH2 0x5E6 PUSH2 0x464 JUMP JUMPDEST JUMPDEST PUSH2 0x5F3 DUP8 DUP3 DUP9 ADD PUSH2 0x581 JUMP JUMPDEST SWAP5 POP POP PUSH1 0x20 DUP6 ADD CALLDATALOAD PUSH8 0xFFFFFFFFFFFFFFFF DUP2 GT ISZERO PUSH2 0x614 JUMPI PUSH2 0x613 PUSH2 0x464 JUMP JUMPDEST JUMPDEST PUSH2 0x620 DUP8 DUP3 DUP9 ADD PUSH2 0x581 JUMP JUMPDEST SWAP4 POP POP PUSH1 0x40 DUP6 ADD CALLDATALOAD PUSH8 0xFFFFFFFFFFFFFFFF DUP2 GT ISZERO PUSH2 0x641 JUMPI PUSH2 0x640 PUSH2 0x464 JUMP JUMPDEST JUMPDEST PUSH2 0x64D DUP8 DUP3 DUP9 ADD PUSH2 0x581 JUMP JUMPDEST SWAP3 POP POP PUSH1 0x60 DUP6 ADD CALLDATALOAD PUSH8 0xFFFFFFFFFFFFFFFF DUP2 GT ISZERO PUSH2 0x66E JUMPI PUSH2 0x66D PUSH2 0x464 JUMP JUMPDEST JUMPDEST PUSH2 0x67A DUP8 DUP3 DUP9 ADD PUSH2 0x581 JUMP JUMPDEST SWAP2 POP POP SWAP3 SWAP6 SWAP2 SWAP5 POP SWAP3 POP JUMP JUMPDEST PUSH1 0x0 DUP2 SWAP1 POP SWAP2 SWAP1 POP JUMP JUMPDEST PUSH2 0x699 DUP2 PUSH2 0x686 JUMP JUMPDEST DUP2 EQ PUSH2 0x6A4 JUMPI PUSH1 0x0 DUP1 REVERT JUMPDEST POP JUMP JUMPDEST PUSH1 0x0 DUP2 CALLDATALOAD SWAP1 POP PUSH2 0x6B6 DUP2 PUSH2 0x690 JUMP JUMPDEST SWAP3 SWAP2 POP POP JUMP JUMPDEST PUSH1 0x0 PUSH1 0x20 DUP3 DUP5 SUB SLT ISZERO PUSH2 0x6D2 JUMPI PUSH2 0x6D1 PUSH2 0x45F JUMP JUMPDEST JUMPDEST PUSH1 0x0 PUSH2 0x6E0 DUP5 DUP3 DUP6 ADD PUSH2 0x6A7 JUMP JUMPDEST SWAP2 POP POP SWAP3 SWAP2 POP POP JUMP JUMPDEST PUSH1 0x0 DUP2 MLOAD SWAP1 POP SWAP2 SWAP1 POP JUMP JUMPDEST PUSH1 0x0 DUP3 DUP3 MSTORE PUSH1 0x20 DUP3 ADD SWAP1 POP SWAP3 SWAP2 POP POP JUMP JUMPDEST PUSH1 0x0 JUMPDEST DUP4 DUP2 LT ISZERO PUSH2 0x723 JUMPI DUP1 DUP3 ADD MLOAD DUP2 DUP5 ADD MSTORE PUSH1 0x20 DUP2 ADD SWAP1 POP PUSH2 0x708 JUMP JUMPDEST DUP4 DUP2 GT ISZERO PUSH2 0x732 JUMPI PUSH1 0x0 DUP5 DUP5 ADD MSTORE JUMPDEST POP POP POP POP JUMP JUMPDEST PUSH1 0x0 PUSH2 0x743 DUP3 PUSH2 0x6E9 JUMP JUMPDEST PUSH2 0x74D DUP2 DUP6 PUSH2 0x6F4 JUMP JUMPDEST SWAP4 POP PUSH2 0x75D DUP2 DUP6 PUSH1 0x20 DUP7 ADD PUSH2 0x705 JUMP JUMPDEST PUSH2 0x766 DUP2 PUSH2 0x473 JUMP JUMPDEST DUP5 ADD SWAP2 POP POP SWAP3 SWAP2 POP POP JUMP JUMPDEST PUSH1 0x0 PUSH1 0x80 DUP3 ADD SWAP1 POP DUP2 DUP2 SUB PUSH1 0x0 DUP4 ADD MSTORE PUSH2 0x78B DUP2 DUP8 PUSH2 0x738 JUMP JUMPDEST SWAP1 POP DUP2 DUP2 SUB PUSH1 0x20 DUP4 ADD MSTORE PUSH2 0x79F DUP2 DUP7 PUSH2 0x738 JUMP JUMPDEST SWAP1 POP DUP2 DUP2 SUB PUSH1 0x40 DUP4 ADD MSTORE PUSH2 0x7B3 DUP2 DUP6 PUSH2 0x738 JUMP JUMPDEST SWAP1 POP DUP2 DUP2 SUB PUSH1 0x60 DUP4 ADD MSTORE PUSH2 0x7C7 DUP2 DUP5 PUSH2 0x738 JUMP JUMPDEST SWAP1 POP SWAP6 SWAP5 POP POP POP POP POP JUMP JUMPDEST PUSH32 0x4E487B7100000000000000000000000000000000000000000000000000000000 PUSH1 0x0 MSTORE PUSH1 0x22 PUSH1 0x4 MSTORE PUSH1 0x24 PUSH1 0x0 REVERT JUMPDEST PUSH1 0x0 PUSH1 0x2 DUP3 DIV SWAP1 POP PUSH1 0x1 DUP3 AND DUP1 PUSH2 0x819 JUMPI PUSH1 0x7F DUP3 AND SWAP2 POP JUMPDEST PUSH1 0x20 DUP3 LT DUP2 SUB PUSH2 0x82C JUMPI PUSH2 0x82B PUSH2 0x7D2 JUMP JUMPDEST JUMPDEST POP SWAP2 SWAP1 POP JUMP INVALID LOG2 PUSH5 0x6970667358 0x22 SLT KECCAK256 PUSH3 0x184D2D PUSH13 0xB1C0644272B4AC20C68742444D SELFBALANCE BYTE 0xE7 0xCC EXP 0xD7 0x2F MLOAD DUP15 PUSH17 0xF93D906364736F6C634300080E00330000 "
				},
				"gasEstimates": {
					"creation": {
						"codeDepositCost": "430400",
						"executionCost": "468",
						"totalCost": "430868"
					},
					"external": {
						"addDetails(string,string,string,string)": "infinite",
						"details(uint256)": "infinite"
					}
				},
				"methodIdentifiers": {
					"addDetails(string,string,string,string)": "29cc6222",
					"details(uint256)": "a005ec7a"
				}
			},
			"storageLayout": {
				"storage": [
					{
						"astId": 6,
						"contract": "contracts/mycontract.sol:startTrade",
						"label": "details",
						"offset": 0,
						"slot": "0",
						"type": "t_array(t_struct(Details)15_storage)dyn_storage"
					}
				],
				"types": {
					"t_array(t_struct(Details)15_storage)dyn_storage": {
						"base": "t_struct(Details)15_storage",
						"encoding": "dynamic_array",
						"label": "struct startTrade.Details[]",
						"numberOfBytes": "32"
					},
					"t_string_storage": {
						"encoding": "bytes",
						"label": "string",
						"numberOfBytes": "32"
					},
					"t_struct(Details)15_storage": {
						"encoding": "inplace",
						"label": "struct startTrade.Details",
						"members": [
							{
								"astId": 8,
								"contract": "contracts/mycontract.sol:startTrade",
								"label": "price",
								"offset": 0,
								"slot": "0",
								"type": "t_string_storage"
							},
							{
								"astId": 10,
								"contract": "contracts/mycontract.sol:startTrade",
								"label": "location",
								"offset": 0,
								"slot": "1",
								"type": "t_string_storage"
							},
							{
								"astId": 12,
								"contract": "contracts/mycontract.sol:startTrade",
								"label": "prac",
								"offset": 0,
								"slot": "2",
								"type": "t_string_storage"
							},
							{
								"astId": 14,
								"contract": "contracts/mycontract.sol:startTrade",
								"label": "size",
								"offset": 0,
								"slot": "3",
								"type": "t_string_storage"
							}
						],
						"numberOfBytes": "128"
					}
				}
			},
			"userdoc": {
				"kind": "user",
				"methods": {},
				"version": 1
			}
		}
	}
}